:060000000A128A11122809
:10000800FE00030EF7000408F8000A08F90083123E
:1000180003137F08FA000A128A159F2E0A128A1102
:100028001528831603130A128A15D5240A128A1171
:10003800B6000A128A15D6240A128A11B700831349
:10004800A0308400B6300A128A15D7240A128A1101
:100058005630840070300A128A15D724FC01FD013D
:10006800FB0183010A128A11C62B02308312031383
:1000780036020530031935020318A8280230360263
:10008800013003193502031CA8280030A9000030EC
:10009800A8000030A7000430A600F430B700C9302B
:1000A800B8000030B9000030BA003608A1003508A1
:1000B800A0006430A2000030A3000A128A157D2532
:1000C8000A128A11831203132008BB002108BC00FE
:1000D800BD01BE01BB09BC09BD09BE09BB0A0319A4
:1000E800BC0A0319BD0A0319BE0A3B08B7073C0836
:1000F80003183C0F80288128B8073D0803183D0FD6
:1001080086288728B9073E0803183E0ABA073A081E
:10011800AD003908AC003808AB003708AA000A124D
:100128008A1571270A128A11831203132608643E5E
:1001380083160313A0008312031327080318013E34
:10014800003E83160313A1000230831236020130E9
:1001580003193502031816290130360289300319AC
:100168003502031C16290030A9000030A800003011
:10017800A7007830A6006430B700C830B800003057
:10018800B9000030BA003608A1003508A000643074
:10019800A2000030A3000A128A157D250A128A11CE
:1001A800831203132008BB002108BC00BD01BE0157
:1001B800BB09BC09BD09BE09BB0A0319BC0A03195E
:1001C800BD0A0319BE0A3B08B7073C0803183C0FD1
:1001D800EE28EF28B8073D0803183D0FF428F52846
:1001E800B9073E0803183E0ABA073A08AD003908AD
:1001F800AC003808AB003708AA000A128A15712724
:100208000A128A11831203132608C83E83160313A1
:10021800A0008312031327080318013E003E83162B
:100228000313A10001308312360289300319350205
:1002380003188429013036022A3003193502031CB9
:1002480084290030A9000030A8000030A7005F30E2
:10025800A6008430B7009930B8000030B9000030EB
:10026800BA003608A1003508A0006430A2000030AA
:10027800A3000A128A157D250A128A118312031314
:100288002008BB002108BC00BD01BE01BB09BC0998
:10029800BD09BE09BB0A0319BC0A0319BD0A031923
:1002A800BE0A3B08B7073C0803183C0F5C295D29C8
:1002B800B8073D0803183D0F62296329B9073E08AE
:1002C80003183E0ABA073A08AD003908AC003808E6
:1002D800AB003708AA000A128A1571270A128A1178
:1002E8008312031326082C3E83160313A0008312DF
:1002F800031327080318013E013E83160313A100C8
:100308000130831236022A30031935020318CA292C
:1003180000303602EC3003193502031CCA293E307E
:10032800A6000030A7003608A1003508A0006430F8
:10033800A2000030A3000A128A157D250A128A112C
:10034800831203132009B7002109B800B70A03195B
:10035800B80A3708683EA80038080318013E743EFA
:10036800A9000A128A1523260A128A118312031376
:100378002608903E83160313A00083120313270850
:100388000318013E013E83160313A10000308312B7
:100398003602EC30031935020318102A00303602F1
:1003A800C23003193502031C102A2A30A600003077
:1003B800A7003608A1003508A0006430A20000306C
:1003C800A3000A128A157D250A128A1183120313C3
:1003D8002009B7002109B800B70A0319B80A370875
:1003E800303EA80038080318013E5C3EA9000A12F6
:1003F8008A1523260A128A11831203132608F43E4B
:1004080083160313A0008312031327080318013E61
:10041800013E83160313A100003083123602C23056
:10042800031935020318562A00303602A83003197A
:100438003502031C562A1A30A6000030A7003608D9
:10044800A1003508A0006430A2000030A3000A1201
:100458008A157D250A128A11831203132009B70011
:100468002109B800B70A0319B80A3708C83EA80016
:1004780038080318013E4B3EA9000A128A152326A4
:100488000A128A11831203132608583E831603138F
:10049800A0008312031327080318013E023E8316A7
:1004A8000313A100003083123602A8300319350265
:1004B80003189C2A00303602903003193502031CB9
:1004C8009C2A1830A6000030A7003608A10035087D
:1004D800A0006430A2000030A3000A128A157D250E
:1004E8000A128A11831203132009B7002109B800E0
:1004F800B70A0319B80A3708A03EA8003808031835
:10050800013E413EA9000A128A1523260A128A11C1
:10051800831203132608BC3E83160313A00083121C
:10052800031327080318013E023E83160313A10094
:100538000030831236029030031935020318E22A7C
:1005480000303602813003193502031CE22A0F30CD
:10055800A6000030A7003608A1003508A0006430C6
:10056800A2000030A3000A128A157D250A128A11FA
:10057800831203132009B7002109B800B70A031929
:10058800B80A3708403EA80038080318013E383E2C
:10059800A9000A128A1523260A128A118312031344
:1005A8002608203E83160313A0008312031327088E
:1005B8000318013E033E83160313A1000030831283
:1005C80036028130031935020318282B0030360211
:1005D8006E3003193502031C282B1330A600003097
:1005E800A7003608A1003508A0006430A20000303A
:1005F800A3000A128A157D250A128A118312031391
:100608002009B7002109B800B70A0319B80A370842
:10061800643EA80038080318013E323EA9000A12B9
:100628008A1523260A128A11831203132608B63E56
:1006380083160313A0008312031327080318013E2F
:10064800033E83160313A1000030831236026E3076
:100658000319350203186E2B003036026230031975
:100668003502031C6E2B0C30A6000030A70036089C
:10067800A1003508A0006430A2000030A3000A12CF
:100688008A157D250A128A11831203132009B700DF
:100698002109B800B70A0319B80A3708F83EA800B4
:1006A80038080318013E2A3EA9000A128A15232693
:1006B8000A128A118312031326084C3E8316031369
:1006C800A0008312031327080318013E043E831673
:1006D8000313A10000308312360262300319350279
:1006E8000318B22B003036025A3003193502031CA6
:1006F800B22B3608A1003508A0006430A2000030F3
:10070800A3000A128A157D250A128A11831203137F
:100718002009B7002109B800B70A0319B80A370831
:10072800483EB90038080318013E263EBA000310B7
:10073800BA0CB90C0310BA0CB90C0310BA0CB90CEA
:100748003908E23E83160313A000831203133A0804
:100758000318013E043E83160313A10000308312E0
:1007680036025A3003193502031CC12B02303602F7
:10077800053003193502031C080083160313A00172
:10078800A10108007F3083120313C100D430C000D8
:10079800AE30BF00BF0BCE2BC00BCE2BC10BCE2B68
:1007A800D52B0A128A1545250A128A110A128A15AA
:1007B800FE240A128A110A128A15C8250A128A11F9
:1007C8000A128A152F250A128A110D308312031373
:1007D800BF003F08C90049080A128A150D250A12E8
:1007E8008A111A3083120313C1005E30C0008630AC
:1007F800BF00BF0BFD2BC00BFD2BC10BFD2B000059
:1008080080300A128A15F2240A128A111A308312C9
:100818000313C1005E30C0008630BF00BF0B122C2E
:10082800C00B122CC10B122C000084300A128A153E
:10083800F2240A128A111A3083120313C1005E309F
:10084800C0008630BF00BF0B272CC00B272CC10B64
:10085800272C0000F43083120313A3000130A400F6
:100868000A128A110F270A128A1183120313A2018E
:10087800A20A12300A128A1561260A128A118312F4
:10088800031322032304031DE62CDC01DD01C83019
:10089800A1000030A200C830A3000030A4000A1252
:1008A8008A15E4260A128A11831203135D08803A16
:1008B800FF0080307F02031D632C02305C020318A6
:1008C800912C023083120313BF003F08A20013309B
:1008D8000A128A1561260A128A1183120313230841
:1008E800D9002208D80058085C07DC00590803180A
:1008F800590A5D07DD0000300A128A15DF240A1242
:100908008A11831203135D08A4005C08A3000A126D
:100918008A110F270A128A11582CFA3083120313EE
:10092800A1000030A200FA30A3000030A4000A128F
:100938008A15E4260A128A11831203135D08803A85
:10094800FF008F307F02031DAB2CA0305C02031820
:10095800D92C023083120313BF003F08A2001330C2
:100968000A128A1561260A128A11831203132308B0
:10097800D9002208D80058085C07DC005908031879
:10098800590A5D07DD0000300A128A15DF240A12B1
:100998008A11831203135D08A4005C08A3000A12DD
:1009A8008A110F270A128A11A02C00308312031310
:1009B800A100A2000030A300A4000A128A15E426B0
:1009C8000A128A1183120313A201A20A12300A1210
:1009D8008A1561260A128A1104308312031322062B
:1009E8002304031DBE2DDC01DD01DA01DB01A62D88
:1009F800831603133308803AFF007F307F02031DFC
:100A0800072DAB303202031C3E2DFA30831203133C
:100A1800BF003F08A100FF30C0004008A200FF301F
:100A2800C1004108A30000300A128A15A0250A1245
:100A38008A11023083120313BF003F08A20014304A
:100A48000A128A1561260A128A11831203132308CF
:100A580083160313A70083120313220883160313B4
:100A6800A60026083207B20027080318270A33070A
:100A7800B300FC2C83160313B201B301A601A7012E
:100A8800FA3083120313BF003F08A1007F30C00073
:100A98004008A200FF30C1004108A30000300A123C
:100AA8008A15A0250A128A11831203135D08803A59
:100AB800FF0083307F02031D632DE8305C020318BA
:100AC800912D023083120313BF003F08A200133098
:100AD8000A128A1561260A128A118312031323083F
:100AE800D9002208D80058085C07DC005908031808
:100AF800590A5D07DD0000300A128A15DF240A1240
:100B08008A11831203135D08A4005C08A3000A126B
:100B18008A110F270A128A11582D83120313DC0138
:100B2800DD01A101A201A30100300A128A15A02546
:100B38000A128A11013083120313DA070318DB0A39
:100B48000030DB075B08803AFF0080307F02031D1E
:100B5800AF2D04305A02031CFC2C003083120313FF
:100B6800A100A2000030A300A4000A128A15E426FE
:100B78000A128A1183120313A201A20A12300A125E
:100B88008A1561260A128A11053083120313220678
:100B98002304031D392CC301C401D201D3015A30E7
:100BA800CC000030CD00C501C6015030CE00003069
:100BB800CF00C701C801CA01CB01FA30D400003008
:100BC800D500D001D101CA01CB0104304B02B030AD
:100BD80003194A020318392C0A128A155D250A12CC
:100BE8008A118312031357085502031DFD2D560859
:100BF8005402031C6F2E7F2E0A128A155D250A12D5
:100C08008A11831203135409BF005509C000BF0A93
:100C18000319C00A56083F07D20057080318570A95
:100C28004007D3005308A1005208A0000030A200DA
:100C3800A3000A128A157D250A128A11831203134A
:100C48002008BF002108C00052080A3EA600530829
:100C58000318013E003EA7004D08A9004C08A80053
:100C68000A128A1523260A128A11831203132608E8
:100C78003F07C10027080318270A4007C2004C088D
:100C88004107C5004D0803184D0A4207C6004F0822
:100C9800A2004E08A1004608A4004508A3000A12B5
:100CA8008A15E4260A128A11033083120313C1003D
:100CB8008A30C0005630BF00BF0B602EC00B602EBC
:100CC800C10B602E672E013083120313D00703185F
:100CD800D10A0030D10757085502031D752E560852
:100CE80054020318062F0030510214300319500221
:100CF800031C002E062F55085702031D852E540885
:100D08005602031CF72E082F0A128A155D250A12AF
:100D18008A11831203135609BF005709C000BF0A7E
:100D28000319C00A54083F07D20055080318550A8A
:100D38004007D3005308A1005208A0000030A200C9
:100D4800A3000A128A157D250A128A118312031339
:100D58002008BF002108C00052080A3EA600530818
:100D68000318013E003EA7004F08A9004E08A8003E
:100D78000A128A1523260A128A11831203132608D7
:100D88003F07C10027080318270A4007C2004E087A
:100D98004107C7004F0803184F0A4207C800480810
:100DA800A2004708A1004D08A4004C08A3000A129D
:100DB8008A15E4260A128A11033083120313C1002C
:100DC8008A30C0005630BF00BF0BE82EC00BE82E9B
:100DD800C10BE82EEF2E013083120313D00703183E
:100DE800D10A0030D10755085702031DFD2E5408BB
:100DF80056020318062F003051021430031950020E
:100E0800031C882ED001D1010130CA070318CB0A70
:100E18000030CB07E92D831203132408AE00230802
:100E2800AD00A501A601A701A801A901AA01AB016E
:100E3800AC0127302E02103003192D02031C412F5C
:100E48002D08F03EAD002E080318013ED83EAE0036
:100E58000130AB070318AC0A0030AC071D2F2D0872
:100E6800183EAD002E080318013EFC3EAE000130CE
:100E7800A9070318AA0A0030AA0703302E02E8308F
:100E880003192D02031C572F332F2D089C3EAD004C
:100E98002E080318013EFF3EAE000130A7070318D5
:100EA800A80A0030A80700302E02643003192D026A
:100EB800031C6D2F492F2D08F63EAD002E08031890
:100EC800013EFF3EAE000130A5070318A60A003018
:100ED800A60700302E020A3003192D0203185F2FCF
:100EE8002B082C0403197F2F2B08303E0A128A1571
:100EF8001C250A128A118312031329082A040319CC
:100F08008C2F2908303E0A128A151C250A128A11CC
:100F1800831203132708303E0A128A151C250A1269
:100F28008A11831203132508303E0A128A151C25DC
:100F38000A128A11831203132D08303E0A128A15E9
:100F48001C250800831203139E01831603139E01B8
:100F5800831203131F151F19AF2F1E08A000A1012C
:100F68000310A00DA10D0310A00DA10D2008D6009F
:100F78002108D700DD2F83125608013ED6005708F6
:100F88000318013E003ED700080083125608023EAF
:100F9800D60057080318013E003ED7000800831208
:100FA8005608033ED60057080318013E003ED700F6
:100FB8000800831603131E08403A0319BF2FC03ACE
:100FC8000319C92F403A0319D32FEA2F08008312B7
:100FD8000313A200091189100910220888000915B5
:100FE80009110D30A100FB30A000A00BF92FA10BB7
:060FF800F92FFE2F080096
:1019AA00E834033464008001840A0406031900340D
:1019BA000406D82C83120313A300A31723080A12C0
:1019CA008A11EB270800831203138C1EE82C1A08CD
:1019DA00A0002008A1002108080083120313A00018
:1019EA0083160313981CF52C8312031320089900FD
:1019FA0008002430831603139800983083120313C7
:101A0A00980014308316031399000B178B170800DC
:101A1A0083120313A200A1018C11220893008C1DCA
:101A2A00142D1308A0002008A1008C1108008312AD
:101A3A000313A20009118910091422088800091544
:101A4A0009110730A1007D30A000A00B2A2DA10B9F
:101A5A002A2D0800831203138501FF30831603130E
:101A6A0085008930831203139F0002308316031303
:101A7A009F00533083120313A000A00B422D0800CD
:101A8A008316031386014030940020308312031317
:101A9A009400D03083160313870003308312031394
:101AAA00870004308316031381008B168B170800F6
:101ABA000A128A11A6270A128A1580300A128A1572
:101ACA00DF240A128A15831203135708A400560842
:101ADA00A3000A128A110F270A128A158312031306
:101AEA005708B6005608B5000A128A1139200800AC
:101AFA0083120313A401A501201C892D2208A4071F
:101B0A000318A50A2308A50701300310A20DA30D87
:101B1A00FF3E031D8A2D01300310A10CA00CFF3ECD
:101B2A00031D912D20082104031D812D2508A100E4
:101B3A002408A000080083120313A40089300A12A3
:101B4A008A15F2240A128A158312031324080A1228
:101B5A008A15F2240A128A158312031321080A121B
:101B6A008A15F2240A128A158312031322080A120A
:101B7A008A15F2240A128A158312031323080A12F9
:101B8A008A15F22408000230831603139F00831279
:101B9A00031388018901831603138801890101301F
:101BAA000A128A11EB270A128A1538300A128A1188
:101BBA00EB270A128A150C300A128A11EB270A122D
:101BCA008A1506300A128A11EB270A128A15023080
:101BDA000A128A11EB2708007008710403191E2ED5
:101BEA00F501F50AF11B052E01300310F00DF10D78
:101BFA00FF3E031DFA2D0130F4007408F507F72D96
:101C0A0071087302031D0B2E70087202031C132E37
:101C1A007008F2027108031CF303F3020130031087
:101C2A00F10CF00CFF3E031D142E0130F502031DCA
:101C3A00052E7308F1007208F000080083120313DE
:101C4A00AB01AC012608270403195C2EAD01AD0ACD
:101C5A00A71B3B2E01300310A60DA70DFF3E031D47
:101C6A00302E0130AA002A08AD072D2E01300310AC
:101C7A00AB0DAC0DFF3E031D3C2E27082902031DA8
:101C8A00482E26082802031C512E2608A8022708D7
:101C9A00031CA903A9022B1401300310A70CA60CDC
:101CAA00FF3E031D522E0130AD02031D3B2E2C08B0
:101CBA00A7002B08A600080083120313A8008E3081
:101CCA000A128A15F2240A128A15831203132808A3
:101CDA000A128A15F2240A128A1502308312031391
:101CEA002206031D832E0A128A15E8240A128A156F
:101CFA0083120313A4002408EF00842EEF010A12B2
:101D0A008A15E82483120313A4002408E8006F0844
:101D1A00A400A5012408A500A40168082407A600B8
:101D2A000030031801302507A7002708A30026085A
:101D3A00A20008000B1DD92E0B116430810001305E
:101D4A0083160313B0070318B10A0030B107E8304D
:101D5A00F0000330F1003108F3003008F2000A12F3
:101D6A008A15F1250A128A1570087104031DC52EF9
:101D7A00103083120313860683160313B001B101D0
:101D8A00831203130618CD2E0130F6007608E207F7
:101D9A008618D32E0130F6007608E1070619D92EE7
:101DAA000130F6007608E0077A08FF0079088A0011
:101DBA0078088400770E8300FE0E7E0E09008312D7
:101DCA000313E301DE012208803AFF0081307F021B
:101DDA00031DF12E00302102031C142F831203135A
:101DEA002208A7002108A600E301013027020030DB
:101DFA0003192602031C142F2608003EA6002708F2
:101E0A000318013EFF3EA7000130A5002508E3079D
:101E1A00013027020030031926020318012F83120A
:101E2A0003132108A5002508E4002408803AFF00CE
:101E3A0081307F02031D232F00302302031C462F0B
:101E4A00831203132408A9002308A800DE01013025
:101E5A002902003003192802031C462F2808003ED5
:101E6A00A80029080318013EFF3EA9000130A50079
:101E7A002508DE0701302902003003192802031859
:101E8A00332F831203132308A5002508DF0091309E
:101E9A000A128A15F2240A128A1583120313630896
:101EAA000A128A15F2240A128A1583120313640885
:101EBA000A128A15F2240A128A15831203135E087B
:101ECA000A128A15F2240A128A15831203135F086A
:101EDA000A128A15F224080083120313B001A91FFB
:101EEA00832FA609A709A809A909A60A0319A70AF7
:101EFA000319A80A0319A90AB001B00AAD1F942F41
:101F0A00AA09AB09AC09AD09AA0A0319AB0A031954
:101F1A00AC0A0319AD0A0130AE002E08B006003033
:101F2A00B4000030B3000030B2000030B10029081C
:101F3A002804270426040319E92FAF01AF0AA91BB5
:101F4A00B42F0130AE000310A60DA70DA80DA90DE0
:101F5A00AE0BA82F0130AE002E08AF07A42F013018
:101F6A00AE000310B10DB20DB30DB40DAE0BB62F0A
:101F7A0029082D02031DCB2F28082C02031DCB2F65
:101F8A0027082B02031DCB2F26082A02031CDC2F4D
:101F9A002608AA022708031C270FAB022808031CDD
:101FAA00280FAC022908031C290FAD023114013095
:101FBA000310A90CA80CA70CA60CFF3E031DDD2FCD
:101FCA000130AF02031DB42F30080319F72FB109EE
:101FDA00B209B309B409B10A0319B20A0319B30A57
:101FEA000319B40A3408A9003308A8003208A70064
:061FFA003108A6000800FA
:02400E003A3F37
:00000001FF
