:060000000A128A11122809
:10000800FE00030EF7000408F8000A08F90083123E
:1000180003137F08FA000A128A150F2F0A128A1191
:1000280015280A128A156A250A128A11ED000A1281
:100038008A156B250A128A11EE008313A0308400FA
:10004800B6300A128A11F8270A128A11573084002A
:100058006D300A128A11F827FB01FC01FD018301AA
:100068000A128A11C42B0230831203133602053098
:10007800031935020318A628023036020130031985
:100088003502031CA6280030A9000030A800003063
:10009800A7000430A600F430B700C930B80000301B
:1000A800B9000030BA003608A1003508A000643055
:1000B800A2000030A3000A128A153E260A128A11ED
:1000C800831203132008BB002108BC00BD01BE0138
:1000D800BB09BC09BD09BE09BB0A0319BC0A03193F
:1000E800BD0A0319BE0A3B08B7073C0803183C0FB2
:1000F8007E287F28B8073D0803183D0F84288528E7
:10010800B9073E0803183E0ABA073A08AD0039088D
:10011800AC003808AB003708AA000A128A11B326C7
:100128000A128A11831203132608643E83160313E6
:10013800A0008312031327080318013E003E83160C
:100148000313A1000230831236020130031935026D
:100158000318142901303602893003193502031CAB
:1001680014290030A9000030A8000030A70078301A
:10017800A6006430B700C830B8000030B9000030BD
:10018800BA003608A1003508A0006430A20000308B
:10019800A3000A128A153E260A128A118312031333
:1001A8002008BB002108BC00BD01BE01BB09BC0979
:1001B800BD09BE09BB0A0319BC0A0319BD0A031904
:1001C800BE0A3B08B7073C0803183C0FEC28ED288B
:1001D800B8073D0803183D0FF228F328B9073E0871
:1001E80003183E0ABA073A08AD003908AC003808C7
:1001F800AB003708AA000A128A11B3260A128A111C
:10020800831203132608C83E83160313A000831223
:10021800031327080318013E003E83160313A100A9
:1002280001308312360289300319350203188229F6
:10023800013036022A3003193502031C82290030A6
:10024800A9000030A8000030A7005F30A600843065
:10025800B7009930B8000030B9000030BA0036084D
:10026800A1003508A0006430A2000030A3000A12E3
:100278008A153E260A128A11831203132008BB002E
:100288002108BC00BD01BE01BB09BC09BD09BE09EE
:10029800BB0A0319BC0A0319BD0A0319BE0A3B08A5
:1002A800B7073C0803183C0F5A295B29B8073D08D3
:1002B80003183D0F60296129B9073E0803183E0A53
:1002C800BA073A08AD003908AC003808AB0037085F
:1002D800AA000A128A11B3260A128A11831203137A
:1002E80026082C3E83160313A00083120313270845
:1002F8000318013E013E83160313A1000130831247
:1003080036022A30031935020318C829003036028C
:10031800EC3003193502031CC8293E30A600003012
:10032800A7003608A1003508A0006430A2000030FC
:10033800A3000A128A153E260A128A118312031391
:100348002009B7002109B800B70A0319B80A370805
:10035800683EA80038080318013E743EA9000A1236
:100368008A15D1260A128A11831203132608903E91
:1003780083160313A0008312031327080318013EF2
:10038800013E83160313A100003083123602EC30BD
:100398000319350203180E2A00303602C230031939
:1003A8003502031C0E2A2A30A6000030A7003608A2
:1003B800A1003508A0006430A2000030A3000A1292
:1003C8008A153E260A128A11831203132009B700E0
:1003D8002109B800B70A0319B80A3708303EA8003F
:1003E80038080318013E5C3EA9000A128A15D12676
:1003F8000A128A11831203132608F43E8316031384
:10040800A0008312031327080318013E013E831638
:100418000313A100003083123602C23003193502DB
:100428000318542A00303602A83003193502031C79
:10043800542A1A30A6000030A7003608A100350853
:10044800A0006430A2000030A3000A128A153E26DC
:100458000A128A11831203132009B7002109B80070
:10046800B70A0319B80A3708C83EA800380803189D
:10047800013E4B3EA9000A128A15D1260A128A119A
:10048800831203132608583E83160313A000831211
:10049800031327080318013E023E83160313A10025
:1004A800003083123602A8300319350203189A2A3D
:1004B80000303602903003193502031C9A2A18308E
:1004C800A6000030A7003608A1003508A000643057
:1004D800A2000030A3000A128A153E260A128A11C9
:1004E800831203132009B7002109B800B70A0319BA
:1004F800B80A3708A03EA80038080318013E413E54
:10050800A9000A128A15D1260A128A118312031326
:100518002608BC3E83160313A00083120313270882
:100528000318013E023E83160313A1000030831214
:1005380036029030031935020318E02A00303602DB
:10054800813003193502031CE02A0F30A600003061
:10055800A7003608A1003508A0006430A2000030CA
:10056800A3000A128A153E260A128A11831203135F
:100578002009B7002109B800B70A0319B80A3708D3
:10058800403EA80038080318013E383EA9000A1268
:100598008A15D1260A128A11831203132608203ECF
:1005A80083160313A0008312031327080318013EC0
:1005B800033E83160313A1000030831236028130F4
:1005C800031935020318262B003036026E30031942
:1005D8003502031C262B1330A6000030A70036086E
:1005E800A1003508A0006430A2000030A3000A1260
:1005F8008A153E260A128A11831203132009B700AE
:100608002109B800B70A0319B80A3708643EA800D8
:1006180038080318013E323EA9000A128A15D1266D
:100628000A128A11831203132608B63E831603138F
:10063800A0008312031327080318013E033E831604
:100648000313A1000030831236026E3003193502FD
:1006580003186C2B00303602623003193502031C74
:100668006C2B0C30A6000030A7003608A100350816
:10067800A0006430A2000030A3000A128A153E26AA
:100688000A128A11831203132009B7002109B8003E
:10069800B70A0319B80A3708F83EA800380803183B
:1006A800013E2A3EA9000A128A15D1260A128A1189
:1006B8008312031326084C3E83160313A0008312EB
:1006C800031327080318013E043E83160313A100F1
:1006D8000030831236026230031935020318B02B3A
:1006E800003036025A3003193502031CB02B360885
:1006F800A1003508A0006430A2000030A3000A124F
:100708008A153E260A128A11831203132009B7009C
:100718002109B800B70A0319B80A3708483EB900D2
:1007280038080318013E263EBA000310BA0CB90C6B
:100738000310BA0CB90C0310BA0CB90C3908E23E14
:1007480083160313A000831203133A080318013E0B
:10075800043E83160313A1000030831236025A3078
:1007680003193502031CBF2B02303602053003196A
:100778003502031C080083160313A001A101080019
:100788007F3083120313C300D430C200AE30C100DF
:10079800C10BCC2BC20BCC2BC30BCC2BD32B0A12EB
:1007A8008A15E6250A128A110A128A158B250A1259
:1007B8008A110A128A11CF270A128A110A128A1577
:1007C800D0250A128A110D3083120313C100410883
:1007D800D40054080A128A159A250A128A111A3066
:1007E80083120313C3005E30C2008630C100C10B00
:1007F800FB2BC20BFB2BC30BFB2B000080300A1218
:100808008A157F250A128A111A3083120313C3002E
:100818005E30C2008630C100C10B102CC20B102CF8
:10082800C30B102C000084300A128A157F250A1287
:100838008A111A3083120313C3005E30C200863057
:10084800C100C10B252CC20B252CC30B252C000085
:10085800F43083120313A3000130A4000A128A1192
:100868008B250A128A1183120313A201A20A1230DD
:100878000A128A1593260A128A1183120313220375
:100888002304031DFC2CDB01DC01C830A10000306F
:10089800A200C830A3000030A4000A128A1142271F
:1008A8000A128A11831203135C08803AFF00803011
:1008B8007F02031D612C02305B0203189B2C02305F
:1008C80083120313C1004108A20013300A128A15CB
:1008D80093260A128A11831203132308831603131B
:1008E800AB0083120313220883160313AA002A08F5
:1008F800831203135B07DB00831603132B0803180B
:100908002B0A831203135C07DC0000300A128A15D5
:100918006C250A128A11831203135C08A4005B0871
:10092800A3000A128A118B250A128A11562CFA3052
:1009380083120313A1000030A200FA30A300003094
:10094800A4000A128A1142270A128A118312031379
:100958005C08803AFF008F307F02031DB52CA03061
:100968005B020318EF2C023083120313C100410805
:10097800A20013300A128A1593260A128A118312CA
:100988000313230883160313AB00831203132208EF
:1009980083160313AA002A08831203135B07DB00DC
:1009A800831603132B0803182B0A831203135C07FF
:1009B800DC0000300A128A156C250A128A1183128B
:1009C80003135C08A4005B08A3000A128A118B2594
:1009D8000A128A11AA2C003083120313A100A20064
:1009E8000030A300A4000A128A1142270A128A11B1
:1009F80083120313A201A20A12300A128A1593263F
:100A08000A128A1104308312031322062304031DD9
:100A1800122D0A128A1122260A128A11831203132E
:100A2800A201A20A12300A128A1593260A128A1102
:100A380005308312031322062304031D372CFA30D2
:100A4800D5000030D600C401C501CE01CF01C601D2
:100A5800C701D001D101C801C901D201D301CA011E
:100A6800CB01CC01CD010A128A1122260A128A1161
:100A78005A2D5509C1005609C200C10A0319C20AF4
:100A880057084107CE0058080318580A582D570927
:100A9800C1005809C200C10A0319C20A5508410712
:100AA800CE0056080318560A4207CF000A128A15C4
:100AB800FE250A128A11831203135308A200520852
:100AC800A1005108A4005008A3000A128A11422765
:100AD8000A128A118312031358085602031D762D31
:100AE80057085502031C3D2D56085802031D7E2D3C
:100AF80055085702031C4B2D5608D8005508D70037
:100B08005708580403195A2DCE01CF015A2D8312C4
:100B180003132408AE002308AD00A501A601A70110
:100B2800A801A901AA01AB01AC0127302E0210309F
:100B380003192D02031CBD2D2D08F03EAD002E0813
:100B48000318013ED83EAE000130AB070318AC0ACB
:100B58000030AC07992D2D08183EAD002E0803185B
:100B6800013EFC3EAE000130A9070318AA0A003076
:100B7800AA0703302E02E83003192D02031CD32DD7
:100B8800AF2D2D089C3EAD002E080318013EFF3EF8
:100B9800AE000130A7070318A80A0030A8070030E4
:100BA8002E02643003192D02031CE92DC52D2D08D2
:100BB800F63EAD002E080318013EFF3EAE000130A0
:100BC800A5070318A60A0030A60700302E020A302F
:100BD80003192D020318DB2D2B082C040319FB2DF8
:100BE8002B08303E0A128A15A9250A128A11831287
:100BF800031329082A040319082E2908303E0A126B
:100C08008A15A9250A128A11831203132708303E70
:100C18000A128A15A9250A128A11831203132508B4
:100C2800303E0A128A15A9250A128A118312031363
:100C38002D08303E0A128A15A925080083120313CD
:100C4800ED01EE0183160313AC01AD012D08803AC6
:100C5800FF0081307F02031D332E90302C020318D1
:100C6800662E013083120313A0000030A1000A127F
:100C78008A1599270A128A110A128A15FE250A125C
:100C88008A118312031358086E02031D4D2E57084C
:100C98006D020318532E5808EE005708ED00013076
:100CA80083160313AC070318AD0A0030AD072D08EF
:100CB800803AFF0081307F02031D642E90302C02A1
:100CC800031C352E8312031358086E06031D6E2E5F
:100CD80057086D060319802E1430A1000030A200B9
:100CE8000030A300A4000A128A1142270A128A11AE
:100CF8000A128A15FE250800831203135708EC3ED2
:100D0800BF0058080318013EFF3EC0006E084002AD
:100D1800031D902E6D083F02031808005708143E63
:100D2800BF0058080318013E003EC00040086E028C
:100D3800031DA02E3F086D02031808001430A100FF
:100D48000030A2000030A300A4000A128A11422732
:100D58000A128A1101300A128A151E260800831207
:100D68000313B001A91FC52EA609A709A809A90937
:100D7800A60A0319A70A0319A80A0319A90AB001A0
:100D8800B00AAD1FD62EAA09AB09AC09AD09AA0A4B
:100D98000319AB0A0319AC0A0319AD0A0130AE00F6
:100DA8002E08B0060030B4000030B3000030B200A6
:100DB8000030B100290828042704260403192B2F22
:100DC800AF01AF0AA91BF62E0130AE000310A60D25
:100DD800A70DA80DA90DAE0BEA2E0130AE002E0806
:100DE800AF07E62E0130AE000310B10DB20DB30D02
:100DF800B40DAE0BF82E29082D02031D0D2F28085F
:100E08002C02031D0D2F27082B02031D0D2F26086A
:100E18002A02031C1E2F2608AA022708031C270FD4
:100E2800AB022808031C280FAC022908031C290F51
:100E3800AD02311401300310A90CA80CA70CA60CA4
:100E4800FF3E031D1F2F0130AF02031DF62E300891
:100E58000319392FB109B209B309B409B10A031941
:100E6800B20A0319B30A0319B40A3408A9003308EB
:100E7800A8003208A7003108A6000800831203134F
:100E8800E201DD012208803AFF0081307F02031D64
:100E98004F2F00302102031C722F831203132208E4
:100EA800A7002108A600E20101302702003003193B
:100EB8002602031C722F2608003EA60027080318E6
:100EC800013EFF3EA7000130A5002508E2070130DA
:100ED800270200300319260203185F2F8312031319
:100EE8002108A5002508E3002408803AFF00813086
:100EF8007F02031D812F00302302031CA42F8312BD
:100F080003132408A9002308A800DD0101302902E1
:100F1800003003192802031CA42F2808003EA8004B
:100F280029080318013EFF3EA9000130A500250845
:100F3800DD07013029020030031928020318912F18
:100F4800831203132308A5002508DE0091300A1236
:100F58008A157F250A128A118312031362080A125E
:100F68008A157F250A128A118312031363080A124D
:100F78008A157F250A128A11831203135D080A1243
:100F88008A157F250A128A11831203135E080A1232
:100F98008A157F2508000230831603139F008312E9
:100FA800031388018901831603138801890101301D
:100FB8000A128A15BC250A128A1138300A128A15B3
:100FC800BC250A128A110C300A128A15BC250A128D
:100FD8008A1106300A128A15BC250A128A110230B3
:100FE8000A128A15BC25080064008001840A0406D8
:100FF800031900340406F92F08308A000408840A0B
:10100800820700346134723472346934763465345A
:101018006434203461347434203463346C346F3471
:101028007334653473347434203470346F346934F1
:061038006E347434003434
:101AD400E834033483120313A300A31723080A1260
:101AE4008A15BC250800831203138C1E752D1A0851
:101AF400A0002008A1002108080083120313A000FD
:101B040083160313981C822D831203132008990053
:101B140008002430831603139800983083120313AB
:101B2400980014308316031399000B178B170800C1
:101B340083120313A200A1018C11220893008C1DAF
:101B4400A12D1308A0002008A1008C110800831205
:101B54000313A20009118910091422088800091529
:101B640009110730A1007D30A000A00BB72DA10BF7
:101B7400B72D080083120313A2000911891009105C
:101B840022088800091509110D30A100FB30A000BE
:101B9400A00BCA2DA10BCA2DCF2D0800831203134D
:101BA4008501FF30831603138500893083120313E4
:101BB4009F000230831603139F00533083120313D4
:101BC400A000A00BE32D0800831603138601403008
:101BD40094002030831203139400D030831603132F
:101BE4008700033083120313870004308316031322
:101BF40081008B168B1708000A128A1554270A12C3
:101C04008A1580300A128A156C250A128A158312E5
:101C140003135808A4005708A3000A128A118B253D
:101C24000A128A15831203135808B6005708B50020
:101C34000A128A113720080083120313A40024080F
:101C440084000A128A1500200A128A15003A031920
:101C54000800240884000A128A1500200A128A1532
:101C64000A128A15A9250A128A1501308312031350
:101C7400A3002308A407212E83120313A401A501A2
:101C8400201C4A2E2208A4070318A50A2308A50726
:101C940001300310A20DA30DFF3E031D4B2E013096
:101CA4000310A10CA00CFF3E031D522E200821049A
:101CB400031D422E2508A1002408A0000800700876
:101CC400710403198E2EF501F50AF11B752E0130EE
:101CD4000310F00DF10DFF3E031D6A2E0130F400D8
:101CE4007408F507672E71087302031D7B2E7008B4
:101CF4007202031C832E7008F2027108031CF303A2
:101D0400F30201300310F10CF00CFF3E031D842E8E
:101D14000130F502031D752E7308F1007208F000FE
:101D2400080083120313A8008E300A128A157F2537
:101D34000A128A158312031328080A128A157F25AA
:101D44000A128A150230831203132206031DB52ECC
:101D54000A128A1575250A128A1583120313A40020
:101D64002408EC00B62EEC010A128A15752583129C
:101D74000313A4002408E7006C08A400A5012408A8
:101D8400A500A40167082407A60000300318013049
:101D94002507A7002708A3002608A200080083122D
:101DA4000313AB01AC012608270403190A2FAD0164
:101DB400AD0AA71BE92E01300310A60DA70DFF3EA7
:101DC400031DDE2E0130AA002A08AD07DB2E0130E8
:101DD4000310AB0DAC0DFF3E031DEA2E27082902AC
:101DE400031DF62E26082802031CFF2E2608A8022F
:101DF4002708031CA903A9022B1401300310A70C04
:101E0400A60CFF3E031D002F0130AD02031DE92E79
:101E14002C08A7002B08A60008000B1D492F0B1146
:101E240064308100013083160313B2070318B30A28
:101E34000030B307E830F0000330F1003308F3005A
:101E44003208F2000A128A1561260A128A157008ED
:101E54007104031D352F1030831203138606831675
:101E64000313B201B3018312031306183D2F01308B
:101E7400F6007608E1078618432F0130F60076084D
:101E8400E0070619492F0130F6007608DF077A08C3
:101E9400FF0079088A0078088400770E8300FE0E1C
:101EA4007E0E0900831203139E01831603139E0101
:101EB400831203131F151F195D2F1E08A000A10113
:101EC4000310A00DA10D0310A00DA10D2008D70033
:101ED4002108D8008B2F83125708013ED7005808D9
:101EE4000318013E003ED800080083125708023E42
:101EF400D70058080318013E003ED800080083129A
:101F04005708033ED70058080318013E003ED80086
:101F14000800831603131E08403A03196D2FC03AB4
:101F24000319772F403A0319812F982F0800831241
:101F34000313A601A7012108A5002008A400210875
:101F44002702031DA72F200826020318080059089A
:101F54005A04031DAF2F3C30DE2F59035A04031DCE
:101F6400B52F2E30DE2F023059065A04031DBC2F24
:101F74002B30DE2F033059065A04031DC32F27309C
:101F8400DE2F043059065A04031DCA2F3530DE2FC4
:101F9400053059065A04031DD12F1730DE2F0630A1
:101FA40059065A04031DD82F1B30DE2F073059065B
:101FB4005A04031DDF2F1E3087002130A300763022
:101FC400A200A20BE32FA30BE32F00000130831226
:101FD4000313A6070318A70A0030A70759085A04D1
:101FE4000319FB2F0130D9020030031CDA03DA0293
:0C1FF400A12F0730D9000030DA00A12F27
:02400E003A3F37
:00000001FF
