:060000000A128A11122809
:10000800FE00030EF7000408F8000A08F90083123E
:1000180003137F08FA000A128A15322F0A128A116E
:100028001528831603130A128A155F250A128A11E6
:10003800B2000A128A1560250A128A11B3008313C6
:10004800A0308400B2300A128A1561250A128A117A
:100058005630840070300A128A156125FB01FC01B4
:10006800FD0183010A128A11C62B02308312031381
:1000780036020530031935020318A8280230360263
:10008800013003193502031CA8280030A9000030EC
:10009800A8000030A7000430A600F430B700C9302B
:1000A800B8000030B9000030BA003608A1003508A1
:1000B800A0006430A2000030A3000A128A1512269C
:1000C8000A128A11831203132008BB002108BC00FE
:1000D800BD01BE01BB09BC09BD09BE09BB0A0319A4
:1000E800BC0A0319BD0A0319BE0A3B08B7073C0836
:1000F80003183C0F80288128B8073D0803183D0FD6
:1001080086288728B9073E0803183E0ABA073A081E
:10011800AD003908AC003808AB003708AA000A124D
:100128008A11F1260A128A11831203132608643EE3
:1001380083160313A0008312031327080318013E34
:10014800003E83160313A1000230831236020130E9
:1001580003193502031816290130360289300319AC
:100168003502031C16290030A9000030A800003011
:10017800A7007830A6006430B700C830B800003057
:10018800B9000030BA003608A1003508A000643074
:10019800A2000030A3000A128A1512260A128A1138
:1001A800831203132008BB002108BC00BD01BE0157
:1001B800BB09BC09BD09BE09BB0A0319BC0A03195E
:1001C800BD0A0319BE0A3B08B7073C0803183C0FD1
:1001D800EE28EF28B8073D0803183D0FF428F52846
:1001E800B9073E0803183E0ABA073A08AD003908AD
:1001F800AC003808AB003708AA000A128A11F126A9
:100208000A128A11831203132608C83E83160313A1
:10021800A0008312031327080318013E003E83162B
:100228000313A10001308312360289300319350205
:1002380003188429013036022A3003193502031CB9
:1002480084290030A9000030A8000030A7005F30E2
:10025800A6008430B7009930B8000030B9000030EB
:10026800BA003608A1003508A0006430A2000030AA
:10027800A3000A128A1512260A128A11831203137E
:100288002008BB002108BC00BD01BE01BB09BC0998
:10029800BD09BE09BB0A0319BC0A0319BD0A031923
:1002A800BE0A3B08B7073C0803183C0F5C295D29C8
:1002B800B8073D0803183D0F62296329B9073E08AE
:1002C80003183E0ABA073A08AD003908AC003808E6
:1002D800AB003708AA000A128A11F1260A128A11FD
:1002E8008312031326082C3E83160313A0008312DF
:1002F800031327080318013E013E83160313A100C8
:100308000130831236022A30031935020318CA292C
:1003180000303602EC3003193502031CCA293E307E
:10032800A6000030A7003608A1003508A0006430F8
:10033800A2000030A3000A128A1512260A128A1196
:10034800831203132009B7002109B800B70A03195B
:10035800B80A3708683EA80038080318013E743EFA
:10036800A9000A128A15B6260A128A1183120313E3
:100378002608903E83160313A00083120313270850
:100388000318013E013E83160313A10000308312B7
:100398003602EC30031935020318102A00303602F1
:1003A800C23003193502031C102A2A30A600003077
:1003B800A7003608A1003508A0006430A20000306C
:1003C800A3000A128A1512260A128A11831203132D
:1003D8002009B7002109B800B70A0319B80A370875
:1003E800303EA80038080318013E5C3EA9000A12F6
:1003F8008A15B6260A128A11831203132608F43EB8
:1004080083160313A0008312031327080318013E61
:10041800013E83160313A100003083123602C23056
:10042800031935020318562A00303602A83003197A
:100438003502031C562A1A30A6000030A7003608D9
:10044800A1003508A0006430A2000030A3000A1201
:100458008A1512260A128A11831203132009B7007B
:100468002109B800B70A0319B80A3708C83EA80016
:1004780038080318013E4B3EA9000A128A15B62611
:100488000A128A11831203132608583E831603138F
:10049800A0008312031327080318013E023E8316A7
:1004A8000313A100003083123602A8300319350265
:1004B80003189C2A00303602903003193502031CB9
:1004C8009C2A1830A6000030A7003608A10035087D
:1004D800A0006430A2000030A3000A128A15122678
:1004E8000A128A11831203132009B7002109B800E0
:1004F800B70A0319B80A3708A03EA8003808031835
:10050800013E413EA9000A128A15B6260A128A112E
:10051800831203132608BC3E83160313A00083121C
:10052800031327080318013E023E83160313A10094
:100538000030831236029030031935020318E22A7C
:1005480000303602813003193502031CE22A0F30CD
:10055800A6000030A7003608A1003508A0006430C6
:10056800A2000030A3000A128A1512260A128A1164
:10057800831203132009B7002109B800B70A031929
:10058800B80A3708403EA80038080318013E383E2C
:10059800A9000A128A15B6260A128A1183120313B1
:1005A8002608203E83160313A0008312031327088E
:1005B8000318013E033E83160313A1000030831283
:1005C80036028130031935020318282B0030360211
:1005D8006E3003193502031C282B1330A600003097
:1005E800A7003608A1003508A0006430A20000303A
:1005F800A3000A128A1512260A128A1183120313FB
:100608002009B7002109B800B70A0319B80A370842
:10061800643EA80038080318013E323EA9000A12B9
:100628008A15B6260A128A11831203132608B63EC3
:1006380083160313A0008312031327080318013E2F
:10064800033E83160313A1000030831236026E3076
:100658000319350203186E2B003036026230031975
:100668003502031C6E2B0C30A6000030A70036089C
:10067800A1003508A0006430A2000030A3000A12CF
:100688008A1512260A128A11831203132009B70049
:100698002109B800B70A0319B80A3708F83EA800B4
:1006A80038080318013E2A3EA9000A128A15B62600
:1006B8000A128A118312031326084C3E8316031369
:1006C800A0008312031327080318013E043E831673
:1006D8000313A10000308312360262300319350279
:1006E8000318B22B003036025A3003193502031CA6
:1006F800B22B3608A1003508A0006430A2000030F3
:10070800A3000A128A1512260A128A1183120313E9
:100718002009B7002109B800B70A0319B80A370831
:10072800483EB90038080318013E263EBA000310B7
:10073800BA0CB90C0310BA0CB90C0310BA0CB90CEA
:100748003908E23E83160313A000831203133A0804
:100758000318013E043E83160313A10000308312E0
:1007680036025A3003193502031CC12B02303602F7
:10077800053003193502031C080083160313A00172
:10078800A10108004D3083120313C1001930C000C5
:100798009A30BF00BF0BCE2BC00BCE2BC10BCE2B7C
:1007A800D52B0A128A15DA250A128A110A128A1515
:1007B8008E250A128A110A128A155C260A128A11D3
:1007C8000A128A15C4250A128A110D3083120313DE
:1007D800BF003F08C90049080A128A157F250A1276
:1007E8008A111A3083120313C1005E30C0008630AC
:1007F800BF00BF0BFD2BC00BFD2BC10BFD2B000059
:1008080080300A128A1573250A128A111A30831247
:100818000313C1005E30C0008630BF00BF0B122C2E
:10082800C00B122CC10B122C000084300A128A153E
:1008380073250A128A111A3083120313C1005E301D
:10084800C0008630BF00BF0B272CC00B272CC10B64
:10085800272C0000F43083120313A3000130A400F6
:100868000A128A115A260A128A110A3083120313AD
:1008780064020318061C482C0A128A1585260A12D7
:100888008A1183120313E401A201A20A12300A1288
:100898008A15F4260A128A118312031322032304E9
:1008A800031DF32CDE01DF01C830A1000030A200D7
:1008B800C830A3000030A4000A128A1573270A1250
:1008C8008A11831203135F08803AFF0080307F0289
:1008D800031D702C02305E0203189E2C0230831216
:1008E8000313BF003F08A20013300A128A15F4262A
:1008F8000A128A11831203132308D9002208D80088
:1009080058085E07DE0059080318590A5F07DF0018
:1009180000300A128A11F7270A128A118312031368
:100928005F08A4005E08A3000A128A115A260A1258
:100938008A11652CFA3083120313A1000030A2003B
:10094800FA30A3000030A4000A128A1573270A128D
:100958008A11831203135F08803AFF008F307F02E9
:10096800031DB82CA0305E020318E62C0230831257
:100978000313BF003F08A20013300A128A15F42699
:100988000A128A11831203132308D9002208D800F7
:1009980058085E07DE0059080318590A5F07DF0088
:1009A80000300A128A11F7270A128A1183120313D8
:1009B8005F08A4005E08A3000A128A115A260A12C8
:1009C8008A11AD2C003083120313A100A20000305D
:1009D800A300A4000A128A1573270A128A11831227
:1009E8000313A201A20A12300A128A15F4260A1267
:1009F8008A1104308312031322062304031D092DD0
:100A08000A128A1585260A128A1183120313A20173
:100A1800A20A12300A128A15F4260A128A1105301F
:100A28008312031322062304031D392CC301C401B6
:100A3800D201D3015A30CC000030CD00C501C60127
:100A48005030CE000030CF00C701C801CA01CB0129
:100A5800FA30D4000030D500D001D1010A128A152D
:100A6800F2250A128A1183120313CA01CB0104303A
:100A78004B02B03003194A020318392C57085502A3
:100A8800031D482D56085402031CBA2DCA2D0A12FC
:100A98008A15F2250A128A11831203135409BF001A
:100AA8005509C000BF0A0319C00A56083F07D200FB
:100AB80057080318570A4007D3005308A1005208E3
:100AC800A0000030A200A3000A128A1512260A12FA
:100AD8008A11831203132008BF002108C00052089E
:100AE8000A3EA60053080318013E003EA7004D0821
:100AF800A9004C08A8000A128A15B6260A128A11FB
:100B08008312031326083F07C10027080318270A82
:100B18004007C2004C084107C5004D0803184D0A9C
:100B28004207C6004F08A2004E08A1004608A400CC
:100B38004508A3000A128A1573270A128A1103307E
:100B480083120313C1008A30C0005630BF00BF0BA8
:100B5800AB2DC00BAB2DC10BAB2DB22D01308312C9
:100B68000313D0070318D10A0030D10757085502DC
:100B7800031DC02D560854020318512E003051028F
:100B8800143003195002031C4B2D512E55085702DF
:100B9800031DD02D54085602031C422E532E0A1250
:100BA8008A15F2250A128A11831203135609BF0007
:100BB8005709C000BF0A0319C00A54083F07D200EA
:100BC80055080318550A4007D3005308A1005208D6
:100BD800A0000030A200A3000A128A1512260A12E9
:100BE8008A11831203132008BF002108C00052088D
:100BF8000A3EA60053080318013E003EA7004F080E
:100C0800A9004E08A8000A128A15B6260A128A11E7
:100C18008312031326083F07C10027080318270A71
:100C28004007C2004E084107C7004F0803184F0A83
:100C38004207C8004808A2004708A1004D08A400C0
:100C48004C08A3000A128A1573270A128A11033066
:100C580083120313C1008A30C0005630BF00BF0B97
:100C6800332EC00B332EC10B332E3A2E0130831294
:100C78000313D0070318D10A0030D10755085702CB
:100C8800031D482E540856020318512E00305102F5
:100C9800143003195002031CD32DD001D1010130A7
:100CA800CA070318CB0A0030CB073B2D8312031366
:100CB8002408AE002308AD00A501A601A701A801DC
:100CC800A901AA01AB01AC0127302E02103003198B
:100CD8002D02031C8C2E2D08F03EAD002E080318A3
:100CE800013ED83EAE000130AB070318AC0A003015
:100CF800AC07682E2D08183EAD002E080318013EDB
:100D0800FC3EAE000130A9070318AA0A0030AA0762
:100D180003302E02E83003192D02031CA22E7E2E6A
:100D28002D089C3EAD002E080318013EFF3EAE0084
:100D38000130A7070318A80A0030A80700302E02C0
:100D4800643003192D02031CB82E942E2D08F63E8C
:100D5800AD002E080318013EFF3EAE000130A50786
:100D68000318A60A0030A60700302E020A3003191D
:100D78002D020318AA2E2B082C040319CA2E2B089F
:100D8800303E0A128A159D250A128A11831203130E
:100D980029082A040319D72E2908303E0A128A1571
:100DA8009D250A128A11831203132708303E0A125E
:100DB8008A159D250A128A11831203132508303ECD
:100DC8000A128A159D250A128A11831203132D0807
:100DD800303E0A128A159D25080083120313B001BC
:100DE800A91F032FA609A709A809A909A60A031973
:100DF800A70A0319A80A0319A90AB001B00AAD1F66
:100E0800142FAA09AB09AC09AD09AA0A0319AB0A40
:100E18000319AC0A0319AD0A0130AE002E08B0065A
:100E28000030B4000030B3000030B2000030B10030
:100E380029082804270426040319692FAF01AF0ADB
:100E4800A91B342F0130AE000310A60DA70DA80D65
:100E5800A90DAE0B282F0130AE002E08AF07242FA6
:100E68000130AE000310B10DB20DB30DB40DAE0BD1
:100E7800362F29082D02031D4B2F28082C02031D8D
:100E88004B2F27082B02031D4B2F26082A02031C71
:100E98005C2F2608AA022708031C270FAB02280884
:100EA800031C280FAC022908031C290FAD023114BA
:100EB80001300310A90CA80CA70CA60CFF3E031DBB
:100EC8005D2F0130AF02031D342F30080319772F2F
:100ED800B109B209B309B409B10A0319B20A03196D
:100EE800B30A0319B40A3408A9003308A800320861
:100EF800A7003108A6000800831203139E01831679
:100F080003139E01831203131F151F19892F1E082F
:100F1800A000A1010310A00DA10D0310A00DA10DAB
:100F28002008D6002108D700B72F83125608013EA3
:100F3800D60057080318013E003ED7000800831268
:100F48005608023ED60057080318013E003ED70057
:100F5800080083125608033ED60057080318013EBE
:100F6800003ED7000800831603131E08403A0319F1
:100F7800992FC03A0319A32F403A0319AD2FC42F54
:100F88000800700871040319F22FF501F50AF11B26
:100F9800D92F01300310F00DF10DFF3E031DCE2FA8
:100FA8000130F4007408F507CB2F71087302031D94
:100FB800DF2F70087202031CE72F7008F202710815
:100FC800031CF303F30201300310F10CF00CFF3E95
:100FD800031DE82F0130F502031DD92F7308F10016
:100FE8007208F000080083120313A300A317230854
:080FF8000A128A15B025080059
:101ABE00E834033464008001840A040603190034F8
:101ACE000406622D831203138C1E692D1A08A000C2
:101ADE002008A1002108080083120313A00083161A
:101AEE000313981C762D8312031320089900080007
:101AFE0083120313A200A1018C11220893008C1DE6
:101B0E00862D1308A0002008A1008C110800243097
:101B1E008316031398009830831203139800143021
:101B2E008316031399000B178B17080083120313E8
:101B3E00A20009118910091422088800091509113B
:101B4E000730A1007D30A000A00BAB2DA10BAB2D5B
:101B5E00080083120313A20009118910091022082C
:101B6E008800091509110D30A100FB30A000A00B53
:101B7E00BE2DA10BBE2DC32D0800831203138501AC
:101B8E00FF308316031385008930831203139F00E1
:101B9E000230831603139F00533083120313A000E9
:101BAE00A00BD72D08008316031386014030940036
:101BBE002030831203139400D03083160313870052
:101BCE00033083120313870004308316031381003E
:101BDE008B168B1708000A128A1180270A128A1593
:101BEE0080300A128A11F7270A128A1583120313FC
:101BFE005708A4005608A3000A128A115A260A1280
:101C0E008A15831203135708B6005608B5000A1238
:101C1E008A113920080083120313A401A501201C88
:101C2E001E2E2208A4070318A50A2308A5070130B3
:101C3E000310A20DA30DFF3E031D1F2E0130031036
:101C4E00A10CA00CFF3E031D262E20082104031D0F
:101C5E00162E2508A1002408A000080083120313E5
:101C6E00071487140330A5008A30A4005630A30051
:101C7E00A30B3F2EA40B3F2EA50B3F2E462E10304E
:101C8E000A128A157F250A128A150330831203134E
:101C9E00A5008A30A4005630A300A30B542EA40B2B
:101CAE00542EA50B542E5B2E080002308316031300
:101CBE009F00831203138801890183160313880181
:101CCE00890101300A128A15B0250A128A15383098
:101CDE000A128A15B0250A128A150C300A128A15B4
:101CEE00B0250A128A1506300A128A15B0250A1274
:101CFE008A1502300A128A15B025080083160313BE
:101D0E00B201B3010A128A1535260A128A158312F8
:101D1E000313DA01DB015B08803AFF0081307F029A
:101D2E00031D9B2E90305A020318080083120313D2
:101D3E00071500008312031307118230A700DD3050
:101D4E00A600A60BA82EA70BA82EAD2E013083122F
:101D5E000313DA070318DB0A0030DB07922E831217
:101D6E000313AB01AC01260827040319EF2EAD01B6
:101D7E00AD0AA71BCE2E01300310A60DA70DFF3EF8
:101D8E00031DC32E0130AA002A08AD07C02E013054
:101D9E000310AB0DAC0DFF3E031DCF2E27082902FD
:101DAE00031DDB2E26082802031CE42E2608A8029B
:101DBE002708031CA903A9022B1401300310A70C3A
:101DCE00A60CFF3E031DE52E0130AD02031DCE2EE7
:101DDE002C08A7002B08A600080083120313A800E6
:101DEE008E300A128A1573250A128A15831203136E
:101DFE0028080A128A1573250A128A1502308312D0
:101E0E0003132206031D162F0A128A1569250A12BC
:101E1E008A1583120313A4002408EF00172FEF0175
:101E2E000A128A15692583120313A4002408EA00F6
:101E3E006F08A400A5012408A500A4016A082407C0
:101E4E00A6000030031801302507A7002708A300BD
:101E5E002608A20008000B1D682F0B1164308100AC
:101E6E000130DC070318DD0A0030DD07F430F00026
:101E7E000130F1005D08F3005C08F2000A128A11CD
:101E8E00C5270A128A1570087104031D542F1030CD
:101E9E00831203138606DC01DD0183120313061879
:101EAE005C2F0130F6007608E4078618622F0130A9
:101EBE00F6007608E3070619682F0130F60076085B
:101ECE00E2077A08FF0079088A0078088400770E06
:101EDE008300FE0E7E0E090083120313E501E0015E
:101EEE002208803AFF0081307F02031D802F0030D0
:101EFE002102031CA32F831203132208A70021081B
:101F0E00A600E50101302702003003192602031C4A
:101F1E00A32F2608003EA60027080318013EFF3E09
:101F2E00A7000130A5002508E50701302702003083
:101F3E00031926020318902F831203132108A500FC
:101F4E002508E6002408803AFF0081307F02031D39
:101F5E00B22F00302302031CD52F83120313240843
:101F6E00A9002308A800E00101302902003003195E
:101F7E002802031CD52F2808003EA80029080318A4
:101F8E00013EFF3EA9000130A5002508E007013003
:101F9E0029020030031928020318C22F83120313DB
:101FAE002308A5002508E10091300A128A15732531
:101FBE000A128A158312031365080A128A157325ED
:101FCE000A128A158312031366080A128A157325DC
:101FDE000A128A158312031360080A128A157325D2
:101FEE000A128A158312031361080A128A157325C1
:021FFE000800D9
:02400E003A3F37
:00000001FF
