:060000000A128A11122809
:10000800FE00030EF3000408F4000A08F50083124A
:1000180003137F08F6000A168A110B2E0A128A119A
:1000280015288317B830FD001630FE005930FF0040
:10003800903084000A168A1129250A128A11503034
:10004800FD001630FE00FD30FF00103084000A1657
:100058008A1129250A128A118313EA30FD00153006
:10006800FE007030FF00D63084000A168A11292558
:100078000A128A116E30FD000730FE00F930FF00C9
:10008800673084000A168A1129250A128A118317F3
:10009800B8308400D8300A168A11EC240A128A1162
:1000A8008313A0308400D6300A168A11EC240A1271
:1000B8008A114D30840067300A168A11EC24F70142
:1000C800F801F901F001F10183010A128A116C2883
:1000D8007F3083120313CC00D430CB00AE30CA007B
:1000E800CA0B7428CB0B7428CC0B74287B280A16EF
:1000F8008A1116250A128A110A168A11AF250A12C0
:100108008A110A128A150D200A128A110A168A11F2
:1001180099250A128A110330831603138600FC30CE
:100128008312031386000D30CA004A08831603138E
:10013800EA006A080A168A1107250A128A111A3073
:1001480083120313CC005E30CB008630CA00CA0B82
:10015800AB28CB0BAB28CC0BAB28000080300A12A5
:100168008A1501200A128A111A3083120313CC004F
:100178005E30CB008630CA00CA0BC028CB0BC02823
:10018800CC0BC028000084300A128A1501200A12FC
:100198008A111A3083120313CC005E30CB008630EC
:1001A800CA00CA0BD528CB0BD528CC0BD528000004
:1001B80083120313E901E90AE3010330CA004A087C
:1001C800E7008C300A128A1501200A128A110230BF
:1001D8000A128A1501200A128A110A300A128A158F
:1001E80001200A128A1143300A128A1501200A12C4
:1001F8008A1120300A128A1501200A128A114D30FC
:100208000A128A1501200A128A1110300A128A1558
:1002180001200A128A114D300A128A1501200A1289
:100228008A1110300A128A1501200A128A114D30DB
:100238000A128A1501200A128A1110300A128A1528
:1002480001200A128A114D300A128A1501200A1259
:100258008A1110300A128A1501200A128A114C30AC
:100268000A128A1501200A128A1110300A128A15F8
:1002780001200A128A114A300A128A1501200A122C
:100288008A1110300A128A1501200A128A11483080
:100298000A128A1501200A128A1120300A128A15B8
:1002A80001200A128A114F300A128A1501200A12F7
:1002B8008A1110300A128A1501200A128A11543044
:1002C8000A128A1501200A128A1130300A128A1578
:1002D80001200A128A11103083120313CA004A0837
:1002E80083160313EB00083083120313CA004A086D
:1002F80083160313EC000C3083120313CA004A0858
:1003080083160313ED00243083120313CA004A082E
:1003180083160313EE00203083120313CA004A0821
:1003280083160313EF008C300A128A1501200A1273
:100338008A1103300A128A1501200A128A11103014
:100348000A128A1501200A128A113E300A128A15E9
:1003580001200A128A11831603136B080A128A15E0
:1003680001200A128A1145300A128A1501200A1240
:100378008A11831603136C080A128A1501200A12BF
:100388008A113E300A128A1501200A128A11831630
:1003980003136D080A128A1501200A128A114130C6
:1003A8000A128A1501200A128A11831603136E088D
:1003B8000A128A1501200A128A113E300A128A1579
:1003C80001200A128A11831603136F080A128A156C
:1003D80001200A128A1141300A128A1501200A12D4
:1003E8008A11831603136B080A128A1501200A1250
:1003F8008A113E300A128A1501200A128A118316C0
:1004080003136C080A128A1501200A128A11413056
:100418000A128A1501200A128A11831603136D081D
:100428000A128A1501200A128A1145300A128A1501
:1004380001200A128A11831603136E080A128A15FC
:1004480001200A128A1141300A128A1501200A1263
:100458008A11831603136F080A128A1501200A12DB
:100468008A1145300A128A1501200A128A11831648
:1004780003136B080A128A1501200A128A114130E7
:100488000A128A1501200A128A11831603136C08AE
:100498000A128A1501200A128A1145300A128A1591
:1004A80001200A128A11831603136D080A128A158D
:1004B80001200A128A113C300A128A1501200A12F8
:1004C8008A11831603136E080A128A1501200A126C
:1004D8008A1130300A128A1501200A128A118316ED
:1004E80003136F080A128A1501200A128A11413073
:1004F8000A128A1501200A128A1110300A128A1566
:1005080001200A128A118C300A128A1501200A1257
:100518008A1104300A128A1501200A128A1103303E
:100528000A128A1501200A128A113C300A128A1509
:1005380001200A128A110C300A128A1501200A12A7
:100548008A1141300A128A1501200A128A110C30C8
:100558000A128A1501200A128A1145300A128A15D0
:1005680001200A128A1160300A128A1501200A1223
:100578008A118C300A128A1501200A128A11053054
:100588000A128A1501200A128A110B300A128A15DA
:1005980001200A128A1146300A128A1501200A120D
:1005A8008A110C300A128A1501200A128A11433066
:1005B8000A128A1501200A128A110C300A128A15A9
:1005C80001200A128A113E300A128A1501200A12E5
:1005D8008A1160300A128A1501200A128A114630DF
:1005E8000A128A1501200A128A110C300A128A1579
:1005F80001200A128A1143300A128A1501200A12B0
:100608008A110C300A128A1501200A128A113D300B
:100618000A128A1501200A128A1160300A128A15F4
:1006280001200A128A1146300A128A1501200A127C
:100638008A110C300A128A1501200A128A114330D5
:100648000A128A1501200A128A110C300A128A1518
:1006580001200A128A113C300A128A1501200A1256
:100668008A1160300A128A1501200A128A1146304E
:100678000A128A1501200A128A110C300A128A15E8
:1006880001200A128A113C300A128A1501200A1226
:100698008A1114300A128A1501200A128A118C3024
:1006A8000A128A1501200A128A1106300A128A15BE
:1006B80001200A128A110B300A128A1501200A1227
:1006C8008A1137300A128A1501200A128A11163047
:1006D8000A128A1501200A128A1137300A128A155D
:1006E80001200A128A1116300A128A1501200A12EC
:1006F8008A1100300A128A1501200A128A11023062
:100708000A128A1501200A128A113A300A128A1529
:1007180001200A128A1112300A128A1501200A12BF
:100728008A1130300A128A1501200A128A111830EB
:100738000A128A1501200A128A1100300A128A1533
:1007480001200A128A110A300A128A1501200A1297
:100758008A1137300A128A1501200A128A111630B6
:100768000A128A1501200A128A1137300A128A15CC
:1007780001200A128A1116300A128A1501200A125B
:100788008A1100300A128A1501200A128A110230D1
:100798000A128A1501200A128A1135300A128A159E
:1007A80001200A128A1112300A128A1501200A122F
:1007B8008A1136300A128A1501200A128A11183055
:1007C8000A128A1501200A128A110A3083120313A9
:1007D80055020318861C352C8D300A128A15012003
:1007E8000A128A1106300A128A1501200A128A1181
:1007F8004D3083120313CC001930CB009A30CA0055
:10080800CA0B042CCB0B042CCC0B042C0B2C8D30DA
:100818000A128A1501200A128A1106300A128A154C
:1008280001200A128A114D3083120313CC001930AB
:10083800CB009A30CA00CA0B1F2CCB0B1F2CCC0B39
:100848001F2C262C8D300A128A1501200A128A11B3
:1008580005300A128A1501200A128A11831203131D
:10086800D5010A3056020318061CE92BA5010230EF
:100878000A128A1582240A128A110A128A156D230D
:100888000A128A11701C552C003083120313A10020
:10089800A2000030A300A4000A128A15B4200A128C
:1008A8008A11333083120313CC00BC30CB001030D4
:1008B800CA00CA0B5D2CCB0B5D2CCC0B5D2C0A122D
:1008C8008A157D220A128A11F01F932C0030831298
:1008D8000313A100A2000030A300A4000A128A1585
:1008E800B4200A128A11333083120313CC00BC30AF
:1008F800CB001030CA00CA0B7F2CCB0B7F2CCC0B43
:100908007F2C83120313A50101300A128A15822451
:100918000A128A110A128A156D230A128A11831281
:100928000313A50103300A128A1582240A128A11B8
:100938000A128A156D230A128A11701CB02C003015
:1009480083120313A100A2000030A300A4000A121E
:100958008A15B4200A128A11333083120313CC008B
:10096800BC30CB001030CA00CA0BB82CCB0BB82C4B
:10097800CC0BB82C0A128A157D220A128A11F01F94
:10098800EE2C003083120313A100A2000030A30054
:10099800A4000A128A15B4200A128A11333083126D
:1009A8000313CC00BC30CB001030CA00CA0BDA2CC1
:1009B800CB0BDA2CCC0BDA2C83120313A5010130F4
:1009C8000A128A1582240A128A110A128A156D23BC
:1009D8000A128A11033083120313CA004A08A500B9
:1009E80004300A128A1582240A128A110A128A15F8
:1009F8006D230A128A11701C062D0A128A157D228F
:100A08000A128A11F01F312D003083120313A1003E
:100A1800A2000030A300A4000A128A15B4200A120A
:100A28008A11333083120313CC00BC30CB00103052
:100A3800CA00CA0B1D2DCB0B1D2DCC0B1D2D8312EF
:100A48000313A50101300A128A1582240A128A1199
:100A58000A128A156D230A128A11023083120313AF
:100A6800CA004A08A50003300A128A1582240A120D
:100A78008A110A128A156D230A128A11701C512DC7
:100A8800003083120313A100A2000030A300A400C9
:100A98000A128A15B4200A128A11333083120313FA
:100AA800CC00BC30CB001030CA00CA0B592DCB0B80
:100AB800592DCC0B592D0A128A157D220A128A113A
:100AC800F01F8F2D003083120313A100A200003005
:100AD800A300A4000A128A15B4200A128A1133301E
:100AE80083120313CC00BC30CB001030CA00CA0BF1
:100AF8007B2DCB0B7B2DCC0B7B2D83120313A501F8
:100B080001300A128A1582240A128A110A128A15D9
:100B18006D230A128A1183120313D601E92B96302A
:100B280083120313BA000030BB00F0150A168A11AD
:100B380084250A128A11831203133A08B03EB500BD
:100B48003B080318013EFF3EB60036085002031D5D
:100B5800AF2D35084F020318F82D0D30B700AF3010
:100B6800B600C130B500B50BB72DB60BB72DB70B16
:100B7800B72D0000C83083120313A3000030A4006F
:100B88000A168A1182270A128A11F0110A168A1186
:100B980084250A128A11831203133A08B03EB5005D
:100BA8003B080318013EFF3EB60036085002031DFD
:100BB800DF2D35084F020318E52EC830A30000309A
:100BC800A4000A128A1536200A128A11F015831217
:100BD80003136B0883160313C100831203136A08F7
:100BE80083160313C000622E831250083B02031DB4
:100BF800FF2D4F083A020318032EF0190C2E3B085C
:100C08005002031D092E3A084F02031CF0196F2EDB
:100C18003A09B5003B09B600B50A0319B60A4F08E8
:100C28003507CD0050080318500A3607CE006B0868
:100C3800A1006A08A0004E08A3004D08A2000A16E9
:100C48008A11E8250A128A11831203132108B900B0
:100C58002008B8003908A1003808A0000030A20018
:100C6800A3000A168A11E8250A128A1183120313AF
:100C78002008B5002108B6004D080A3EA0004E081D
:100C88000318013E003EA10003106A0DA2006B0D7F
:100C9800A3000A168A11BF260A128A1183120313A7
:100CA8002008350783160313C00083120313210895
:100CB8000318210A360783160313C100831203138E
:100CC8006D0883160313C300831203136C0883167D
:100CD8000313C200E52E83123B085002031D762E33
:100CE8003A084F0203187A2EF019832E50083B0257
:100CF800031D802E4F083A02031CF019E52E4F09F8
:100D0800B5005009B600B50A0319B60A3A083507FE
:100D1800CD003B0803183B0A3607CE006D08A1003A
:100D28006C08A0004E08A3004D08A2000A168A11FC
:100D3800E8250A128A11831203132108B900200832
:100D4800B8003908A1003808A0000030A200A300AC
:100D58000A168A11E8250A128A1183120313200839
:100D6800B5002108B6004D080A3EA0004E08031839
:100D7800013E003EA10003106C0DA2006D0DA30002
:100D88000A168A11BF260A128A1183120313200831
:100D9800350783160313C2008312031321080318AF
:100DA800210A360783160313C300831203136B0843
:100DB80083160313C100831203136A0883160313EF
:100DC800C00083160313430883120313A20083167B
:100DD8000313420883120313A10083160313410867
:100DE80083120313A400831603134008831203130A
:100DF800A3000A128A15B420080083120313D10134
:100E0800D20106158615222F8D300A128A15012067
:100E18000A128A1105300A128A1501200A128A114B
:100E2800222F8D300A128A1501200A128A110330E6
:100E38000A128A1501200A128A11F0178312031365
:100E48005208803AFF0083307F02031D2D2FE830BF
:100E580051020318A32F0A128A1193250A128A1124
:100E6800023083120313BC003C08A20013300A1698
:100E78008A1181260A128A11831203135108220744
:100E8800D10052080318520A2307D200A201A20A6D
:100E980011300A168A1181260A128A118312031345
:100EA8002308AA002208A9000A128A1541210A1259
:100EB8008A1183120313A201A20A11300A168A1199
:100EC80081260A128A11831203132308803AFF002D
:100ED80080307F02031D722FF030220203187C2F0E
:100EE8007014E93083120313D1000330D200861145
:100EF80083120313A201A20A11300A168A1181264D
:100F08000A128A11831203132208BC003C08C0008D
:100F1800FA3040060319942FF6304006031D222F9D
:100F28000130BC003C08DF07831203135F08013A55
:100F38000319082F033A0319152F222F222F0030E7
:100F480083120313A100A2000030A300A4000A1218
:100F58008A15B4200A128A11333083120313BE0093
:100F6800BC30BD001030BC00BC0BB82FBD0BB82F77
:100F7800BE0BB82F701CD32FF02F01308312031330
:100F8800E302E32F0130BC003C08E907E32F0130FE
:100F9800BC003C08E307E32F0130E902E32F83128A
:100FA80003136708003A0319C12F013A0319C62F22
:100FB800033A0319CB2F013A0319D02FE32F03303B
:100FC800BE008A30BD005630BC00BC0BE92FBD0BFB
:100FD800E92FBE0BE92FF02FF01F08001430831201
:100FE8000313BC003C08BF00080003341434013468
:080FF800FA340034FA3400342D
:1010020083120313A00083160313981C042883126F
:1010120003132008990008000230831603139F006F
:10102200831203138801890183160313880189013E
:1010320001300A168A115C250A128A1538300A16FE
:101042008A115C250A128A150C300A168A115C254F
:101052000A128A1506300A168A115C250A128A15A6
:1010620002300A168A115C2508000330831203132A
:10107200A7008A30A6005630A500A50B3E28A60B75
:101082003E28A70B3E2845280D300A168A1107254F
:101092000A128A15033083120313A7008A30A600AE
:1010A2005630A500A50B5328A60B5328A70B53288F
:1010B2005A280D300A168A1107250A128A1503309A
:1010C20083120313A7008A30A6005630A500A50B91
:1010D2006828A60B6828A70B68286F280D300A1607
:1010E2008A1107250A128A15033083120313A700F7
:1010F2008A30A6005630A500A50B7D28A60B7D28B8
:10110200A70B7D2884288312031324088316031354
:10111200CB0083120313230883160313CA004B0860
:10112200803AFF0080307F02031D992801304A0275
:10113200031C080083120313071500008312031314
:1011420007111430A6007930A500A50BA628A60B1E
:10115200A628AB28FF3083160313CA070318CB0A4D
:10116200FF30CB07902883120313D701D301220843
:10117200803AFF0081307F02031DC1280030210226
:10118200031CE428831203132208A7002108A600E7
:10119200D70101302702003003192602031CE4287C
:1011A2002608003EA60027080318013EFF3EA700BE
:1011B2000130A5002508D7070130270200300319A6
:1011C20026020318D128831203132108A50025083B
:1011D200D8002408803AFF0081307F02031DF328E3
:1011E20000302302031C1629831203132408A900CA
:1011F2002308A800D3010130290200300319280274
:10120200031C16292808003EA80029080318013EDD
:10121200FF3EA9000130A5002508D30701302902AD
:101222000030031928020318032983120313230829
:10123200A5002508D40091300A128A1501200A124D
:101242008A158312031357080A128A1501200A12FB
:101252008A158312031358080A128A1501200A12EA
:101262008A158312031353080A128A1501200A12DF
:101272008A158312031354080A128A1501200800E2
:10128200831203132A08B4002908B300AB01AC018E
:10129200AD01AE01AF01B001B101B201273034029C
:1012A200103003193302031C73293308F03EB300D4
:1012B20034080318013ED83EB4000130B1070318C8
:1012C200B20A0030B2074F293308183EB30034087F
:1012D2000318013EFC3EB4000130AF070318B00A08
:1012E2000030B00703303402E83003193302031C24
:1012F2008929652933089C3EB30034080318013E4E
:10130200FF3EB4000130AD070318AE0A0030AE074D
:1013120000303402643003193302031C9F297B29F5
:101322003308F63EB30034080318013EFF3EB40012
:101332000130AB070318AC0A0030AC0700303402AE
:101342000A300319330203189129310832040319B0
:10135200B1293108303E0A168A1149250A128A1526
:10136200831203132F0830040319BE292F08303EBD
:101372000A168A1149250A128A15831203132D08A7
:101382002E040319CB292D08303E0A168A1149254D
:101392000A128A15831203132B08303E0A168A1189
:1013A20049250A128A15831203133308303E0A169E
:1013B2008A114925080083120313AD00F701F801D1
:1013C2002D03031D1D2A6708031DEC290330AA0003
:1013D2002A08E700EE290130E7029630AA002A081F
:1013E200A100A201A301A30A00300A168A11312624
:1013F2000A128A157808803AFF0080307F02031DA6
:10140200042A5630770203181D2A0230831203136E
:10141200AA002A08A20014300A168A1181260A128A
:101422008A157708831203132207F7007808031836
:10143200780A2307F800FB29831203132D08031DE2
:10144200602A03306706031D282AE7012C2A01308F
:10145200AA002A08E7079630AA002A08A100FF304E
:10146200AB002B08A200FF30AC002C08A300003018
:101472000A168A1131260A128A157808803AFF0064
:101482007F307F02031D472AAB307702031C602A9C
:10149200023083120313AA002A08A20014300A168B
:1014A2008A1181260A128A157708831203132207EA
:1014B200F70078080318780A2307F8003E2A00305C
:1014C20083120313A100A2000030A300A4000A1299
:1014D2008A15B4200A128A15033083120313AC0052
:1014E2008A30AB005630AA00AA0B752AAB0B752ABC
:1014F200AC0B752A7C2A0800E92A053083120313F3
:10150200C5004508A00063080A168A1136250A128A
:101512008A15D63E831203136907C6004608840063
:1015220083130008043ED32A0530C5004508A000F5
:1015320063080A168A1136250A128A15D63E8312C4
:1015420003136907C6004608840083130008023E9D
:10155200D32A0530C5004508A00063080A168A117F
:1015620036250A128A15D63E831203136907C6006E
:101572004608840083130008013ED32A0530C500C3
:101582004508A00063080A168A1136250A128A1530
:10159200D63E831203136907C600460884008313EC
:1015A2000008083EC7000530C8004808A0006308CC
:1015B2000A168A1136250A128A15D63E8312031399
:1015C2006907C90049088400470883138000F92A83
:1015D200831203136708003A03197E2A013A03199A
:1015E200952A033A0319AA2A013A0319BF2AF92AAA
:1015F20000300A128A15DC210A128A1500300A12FA
:101602008A15DC210A128A1583120313D101D20131
:10161200FA30A1000030A200FA30A3000030A4008A
:101622000A128A15B4200A128A1583120313520869
:10163200803AFF0081307F02031D212BF4305102DA
:1016420003183A2B023083120313C5004508A20087
:1016520013300A168A1181260A128A15831203137D
:1016620051082207D10052080318520A2307D20058
:10167200162B003083120313A100A2000030A30036
:10168200A4000A128A15B4200A128A1570101A30A0
:1016920083120313C7005E30C6008630C500C50B37
:1016A200502BC60B502BC70B502B00008312031379
:1016B2006408C5004508A50060080A128A1582243C
:1016C2000A128A150F3083120313680603190800E1
:1016D2000A128A156D23080083120313C301C30A79
:1016E20043086802031C08004308A03E84008313D9
:1016F20000086902031CA42BB22B00300A128A15BF
:10170200DC210A128A156E2C01300A128A15DC219C
:101712000A128A156E2C01300A128A15DC210A126D
:101722008A15213083120313C2007630C100C10B27
:10173200982BC20B982B000001300A128A15DC216B
:101742000A128A156E2C831203136708003A0319D2
:101752007E2B023A0319852B013A03198C2BB12BEC
:101762006E2C831203134308A03E8400690883137E
:101772000002031CE32BF12B01300A128A15DC2133
:101782000A128A156E2C00300A128A15DC210A12FE
:101792008A156E2C01300A128A15DC210A128A156A
:1017A200213083120313C2007630C100C10BD72B44
:1017B200C20BD72B000001300A128A15DC210A1253
:1017C2008A156E2C831203136708003A0319BD2B86
:1017D200013A0319CB2B033A0319C42BF02B6E2CBD
:1017E200831203134308B03E84008313000863028C
:1017F200031C222C302C00300A128A15DC210A121A
:101802008A156E2C01300A128A15DC210A128A15F9
:101812006E2C01300A128A15DC210A128A15213037
:1018220083120313C2007630C100C10B162CC20B07
:10183200162C000001300A128A15DC210A128A15C0
:101842006E2C831203136708003A03190A2C013A1B
:101852000319FC2B023A0319032C2F2C6E2C831232
:1018620003134308B03E8400630883130002031C81
:10187200612C732C01300A128A15DC210A128A1596
:101882006E2C00300A128A15DC210A128A156E2C7F
:1018920001300A128A15DC210A128A1521308312BC
:1018A2000313C2007630C100C10B552CC20B552C5C
:1018B200000001300A128A15DC210A128A156E2CE8
:1018C200831203136708013A03193B2C033A0319E5
:1018D200492C013A0319422C6E2C0A128A11012753
:1018E2000A128A15701C7B2C143083120313C10058
:1018F2004108C300013083120313C1004108C3072A
:10190200712B83120313C1002D3084009030A60086
:101912000408A7001430A8002608840083170008D2
:10192200A900A60A27088400831329088000A70AB1
:10193200A80B8D2C701FDF2CDE0104305E02031811
:10194200DF2CD901053059020318D72C0530A60027
:101952002608A0005E080A168A1136250A128A1580
:10196200D63E831203135907A70027088400831366
:101972000008A8000530A9002908A0005E080A1680
:101982008A1136250A128A152D3E8312031359072E
:10199200AA002A0884002808831380000130A600C8
:1019A2002608D90705305902031CA72C0130A600CE
:1019B2002608DE0704305E02031CA22CDE0104307E
:1019C2005E020318F92CD901053059020318F12CD3
:1019D2000130A6002608D90705305902031CE92C5C
:1019E2000130A6002608DE0704305E02031CE42C48
:1019F2000F30A6002608E800DE0102305E0203185E
:101A0200292DD901103059020318212D5E08A60094
:101A120004300310A60DFF3E031D0A2DA030260739
:101A2200A70059082707A80028088400831380010B
:101A32000130A6002608D90710305902031C072DD1
:101A42000130A6002608DE0702305E02031C022DCA
:101A52004108A6002608E0002508A6002608E400A2
:101A62006908A6002608E2006308A6002608E60028
:101A72006708A6002608DC00DD0180300A168A11FC
:101A8200F4240A128A1501300A168A11C8250A128C
:101A92008A1583120313C301C4014408803AFF006C
:101AA20087307F02031D572DD130430203180800EF
:101AB2007012831203136208A6005D08B83E840008
:101AC2002608831780006608A6005D08C83E8400C9
:101AD200260880000530A6002608A00066080A161F
:101AE2008A1136250A128A152D3E831203136207C4
:101AF200A7002708840083130008103E8400701199
:101B0200831700187015053083120313A6002608E8
:101B1200A00066080A168A1136250A128A152D3E79
:101B2200831203136207A7002708840083130008A7
:101B3200203E84007110831700187114053083123F
:101B42000313A6002608A00066080A168A11362585
:101B52000A128A152D3E831203136207A700270873
:101B6200840083130008303E8400F01283170018AB
:101B7200F016053083120313A6002608A00066089B
:101B82000A168A1136250A128A152D3E831203136C
:101B92006207A7002708840083130008403E8400E0
:101BA200F01083170018F014831203135D08031D4D
:101BB200E32DF12DF014F12D7015F12D7114F12D8D
:101BC200F016F12D5C08003A0319DB2D013A0319D6
:101BD200DD2D033A0319DF2D013A0319E12DF12D11
:101BE2000030701901307118013EF018013EF01AF0
:101BF200013EA6002608C2000330420203181C2E32
:101C02006208A6002608E1006608A6002608E5008C
:101C120070190D2E0330192E7118112EDA011C2E97
:101C2200F01A162EDA01DA0A1C2EF0181C2E0230D7
:101C3200A6002608DA0062084106031D1A2F66086C
:101C42002506031D1A2F68085D020318D22E5D08AF
:101C5200A6002608E800DE0102305E020318D22E3A
:101C6200D901103059020318642E5E08A600043010
:101C72000310A60DFF3E031D392EB8302607A7001C
:101C820059082707A8002808840083170008A9001C
:101C92005E08AA0004300310AA0DFF3E031D4C2E5D
:101CA200A0302A07AB0059082B07AC002C0884008F
:101CB2002908831380000130A6002608D9071030B6
:101CC2005902031C362E0130A6002608DE072D2EEF
:101CD2000530A6002608A00065080A168A113625D6
:101CE2000A128A152D3E831203136107A7002708E3
:101CF200840083130008043EBC2E0530A60026088B
:101D0200A00065080A168A1136250A128A152D3E88
:101D1200831203136107A7002708840083130008B6
:101D2200023EBC2E0530A6002608A00065080A1651
:101D32008A1136250A128A152D3E83120313610772
:101D4200A7002708840083130008013EBC2E05303B
:101D5200A6002608A00065080A168A1136250A126E
:101D62008A152D3E831203136107A70027088400FA
:101D720083130008083EA8000530A9002908A00026
:101D820065080A168A1136250A128A152D3E831213
:101D920003136107AA002A0884002808831380001D
:101DA200E02E5A08003A0319692E013A03197E2ED1
:101DB200033A0319932E013A0319A82EE02E69085B
:101DC200A6002608E2006308A6002608E6006708C7
:101DD200A6002608DC00DD017016DE0102305E027C
:101DE20003181A2FD901103059020318122F5E0856
:101DF200A60004300310A60DFF3E031DFB2EB830D3
:101E02002607A70059082707A80028088400831777
:101E120080010130A6002608D90710305902031CA0
:101E2200F82E0130A6002608DE0702305E02031CEF
:101E3200F32E0430420603198C2F0F305D02031873
:101E42008C2FD42F0530A6002608A00065080A169C
:101E52008A1136250A128A152D3E83120313610751
:101E6200A7002708840083130008043E762F05305C
:101E7200A6002608A00065080A168A1136250A124D
:101E82008A152D3E831203136107A70027088400D9
:101E920083130008023E762F0530A6002608A00014
:101EA20065080A168A1136250A128A152D3E8312F2
:101EB20003136107A7002708840083130008013E6B
:101EC200762F0530A6002608A00065080A168A119A
:101ED20036250A128A152D3E831203136107A700C5
:101EE2002708840083130008083EA8000530A900D3
:101EF2002908A00065080A168A1136250A128A15D1
:101F02002D3E831203136107AA002A0884002808C1
:101F1200831380009A2F5A08003A0319232F013A9B
:101F22000319382F033A03194D2F013A0319622F6F
:101F32009A2F6908A6002608E2006308A600260870
:101F4200E6006708A6002608DC00DD017016DE0147
:101F520002305E020318D42FD9011030590203183F
:101F6200CC2F5E08A60004300310A60DFF3E031D11
:101F7200B52FB8302607A70059082707A800280858
:101F82008400831780010130A6002608D90710308B
:101F92005902031CB22F0130A6002608DE070230C8
:101FA2005E02031CAD2F701AF92F7019DC2F01305D
:101FB200E2020330F22F7118E22F0130E602DC0157
:101FC200F52FF01AEB2F0130A6002608E207DC01FC
:101FD200DC0AF52FF018F92F0130A6002608E607D3
:101FE2000230A6002608DC000130A6002608DD0724
:101FF2000130C3070318C40A0030C4074E2D103045
:102002008A000408840A8207003457346F34723419
:102012006B3469346E3467342E342E342E340034EB
:1029D80064008001840A0406031900340406ED2CFF
:1029E80083120313A300A31723080A168A115C2570
:1029F8000800831203138C1EFD2C1A08A00020085F
:102A0800A1002108080083120313A200A1018C1160
:102A1800220893008C1D0E2D1308A0002008A10089
:102A28008C11080024308316031398009830831201
:102A38000313980014308316031399000B178B1790
:102A480008007E088A007F08820025250A168A1158
:102A58008000840A04087D0603190034FF0A03195C
:102A6800FE0A292D83120313A300A201231C402D63
:102A78002008A1002108A2070310A00D0310A30C31
:102A88002308031D3A2D2208080083120313A2000D
:102A9800091189100914220888000915091107303D
:102AA800A1007D30A000A00B572DA10B572D0800C9
:102AB80083120313A2000911891009102208880043
:102AC800091509110D30A100FB30A000A00B6A2DDB
:102AD800A10B6A2D6F2D08000C3407340E340D3409
:102AE8000634093405340034053402340C34063411
:102AF8000A340E340A340B340934013401340334F3
:102B08000A168A113D270A168A1180300A168A1178
:102B1800F4240A168A11831203135008AA004F08D6
:102B2800A9000A128A15412108008312031385019E
:102B3800FF308316031385008930831203139F0027
:102B48000230831603139F00533083120313A0002F
:102B5800A00BAC2D08000330831603138600403009
:102B680094002030831203139400803083160313DB
:102B7800870003308312031387000430831603137E
:102B880081008B168B17080083120313A4002408F6
:102B980084000A168A1100200A168A11003A0319BD
:102BA8000800240884000A168A1100200A168A11CF
:102BB8000A168A1149250A168A110130831203134D
:102BC800A3002308A407CB2D83120313A401A50196
:102BD800201CF42D2208A4070318A50A2308A5071A
:102BE80001300310A20DA30DFF3E031DF52D01308A
:102BF8000310A10CA00CFF3E031DFC2D200821048E
:102C0800031DEC2D2508A1002408A00008000B1DB9
:102C1800262E0B1164308100013083160313CC0774
:102C28000318CD0A0030CD07831203130618202E8F
:102C38000130F2007208D6078618262E0130F200FD
:102C48007208D5077608FF0075088A0074088400A2
:102C5800730E8300FE0E7E0E090083120313A40078
:102C680089300A128A1501200A168A118312031361
:102C780024080A128A1501200A168A1183120313DE
:102C880021080A128A1501200A168A1183120313D1
:102C980022080A128A1501200A168A1183120313C0
:102CA80023080A128A15012008000C3407340E3450
:102CB8000D340634093405340034053402340C3438
:102CC80006340A340E340A340B340934013401341E
:102CD80003340C3407340E340D3406340934053407
:102CE8000034053402340C3406340A340E340A3401
:102CF8000B34093401340134033483120313A6005E
:102D08008E300A128A1501200A168A1183120313BB
:102D180026080A128A1501200A168A11023083121F
:102D280003132206031DA32E0A168A11FD240A1670
:102D38008A1183120313A4002408F900A42EF901B0
:102D48000A168A11FD2483120313A4002408DB0049
:102D58007908A400A5012408A500A4015B0824079C
:102D6800A7000030031801302507A8002808A30091
:102D78002708A200080083120313A601A701200850
:102D880021040319F82EA501A50AA11BD72E01308D
:102D98000310A00DA10DFF3E031DCC2E0130A40091
:102DA8002408A507C92E01300310A60DA70DFF3E64
:102DB800031DD82E21082302031DE42E2008220219
:102DC800031CED2E2008A2022108031CA303A30262
:102DD800261401300310A10CA00CFF3E031DEE2E9B
:102DE8000130A502031DD72E2708A1002608A00040
:102DF8000800003400340034003400340034003457
:102E08000034013401340134013401340134013413
:102E18000134003400340034003401340134013406
:102E280001340034003400340034013401340134F6
:102E380001340034003401340134003400340134E6
:102E480001340034003401340134003400340134D6
:102E580001340034013400340134003401340034C6
:102E680001340034013400340134003401340034B6
:102E78000134831203139E01831603139E018312E8
:102E880003131F151F19462F1E08A000A1010310C8
:102E9800A00DA10D0310A00DA10D2008CF00210841
:102EA800D000742F83124F08013ECF00500803183A
:102EB800013E003ED000080083124F08023ECF00BA
:102EC80050080318013E003ED000080083124F0846
:102ED800033ECF0050080318013E003ED000080012
:102EE800831603131E08403A0319562FC03A0319D4
:102EF800602F403A03196A2F812F0800033083128C
:102F08000313A7008A30A6005630A500A50B8A2F08
:102F1800A60B8A2FA70B8A2F912F0F300A168A111A
:102F280007250A168A11033083120313A7008A3073
:102F3800A6005630A500A50B9F2FA60B9F2FA70B09
:102F48009F2FA62F0F300A168A1107250A168A11F5
:102F5800033083120313A7008A30A6005630A50059
:102F6800A50BB42FA60BB42FA70BB42FBB2F0F3074
:102F78000A168A1107250A168A11033083120313C9
:102F8800A7008A30A6005630A500A50BC92FA60BAE
:102F9800C92FA70BC92FD02F831203132408831618
:102FA8000313CB0083120313230883160313CA00E9
:102FB8004B08803AFF0080307F02031DE52F013067
:102FC8004A02031C0800831203130715000083122A
:102FD800031307111430A6007930A500A50BF22FB2
:102FE800A60BF22FF72FFF3083160313CA07031817
:082FF800CB0AFF30CB07DC2FF0
:02400E003A3F37
:00000001FF
