:060000000A128A11122809
:10000800FE00030EF3000408F4000A08F50083124A
:1000180003137F08F6000A168A110E2F0A128A1196
:1000280015288317B830FD001730FE005C30FF003C
:10003800903084000A168A112C260A128A11503030
:10004800FD000830FE003830FF00103084000A162A
:100058008A112C260A128A118313EA30FD00163001
:10006800FE007330FF00D63084000A168A112C2651
:100078000A128A116E30FD001530FE00F330FF00C1
:10008800673084000A168A112C260A128A118317EF
:10009800B8308400D8300A128A11F8270A128A1157
:1000A8008313A0308400D6300A128A11F8270A1266
:1000B8008A114D30840067300A128A11F827F70137
:1000C800F801F901F001F10183010A128A116C2883
:1000D8007F3083120313CC00D430CB00AE30CA007B
:1000E800CA0B7428CB0B7428CC0B74287B280A16EF
:1000F8008A1119260A128A110A168A11B2260A12B8
:100108008A110A128A150F200A128A110A168A11F0
:100118009C260A128A110330831603138600FC30CA
:100128008312031386000D30CA004A08831603138E
:10013800EA006A080A128A1500200A128A111A307F
:1001480083120313CC005E30CB008630CA00CA0B82
:10015800AB28CB0BAB28CC0BAB28000080300A16A1
:100168008A110D260A128A111A3083120313CC0041
:100178005E30CB008630CA00CA0BC028CB0BC02823
:10018800CC0BC028000084300A168A110D260A12EA
:100198008A111A3083120313CC005E30CB008630EC
:1001A800CA00CA0BD528CB0BD528CC0BD528000004
:1001B80083120313E901E90AE3010330CA004A087C
:1001C800E7008C300A168A110D260A128A110230AD
:1001D8000A168A110D260A128A110A300A168A117D
:1001E8000D260A128A1143300A168A110D260A12A0
:1001F8008A1120300A168A110D260A128A114D30EA
:100208000A168A110D260A128A1110300A168A1146
:100218000D260A128A114D300A168A110D260A1265
:100228008A1110300A168A110D260A128A114D30C9
:100238000A168A110D260A128A1110300A168A1116
:100248000D260A128A114D300A168A110D260A1235
:100258008A1110300A168A110D260A128A114C309A
:100268000A168A110D260A128A1110300A168A11E6
:100278000D260A128A114A300A168A110D260A1208
:100288008A1110300A168A110D260A128A1148306E
:100298000A168A110D260A128A1120300A168A11A6
:1002A8000D260A128A114F300A168A110D260A12D3
:1002B8008A1110300A168A110D260A128A11543032
:1002C8000A168A110D260A128A1130300A168A1166
:1002D8000D260A128A11103083120313CA004A0825
:1002E80083160313EB00083083120313CA004A086D
:1002F80083160313EC000C3083120313CA004A0858
:1003080083160313ED00243083120313CA004A082E
:1003180083160313EE00203083120313CA004A0821
:1003280083160313EF008C300A168A110D260A1261
:100338008A1103300A168A110D260A128A11103002
:100348000A168A110D260A128A113E300A168A11D7
:100358000D260A128A11831603136B080A168A11CE
:100368000D260A128A1145300A168A110D260A121C
:100378008A11831603136C080A168A110D260A12AD
:100388008A113E300A168A110D260A128A1183161E
:1003980003136D080A168A110D260A128A114130B4
:1003A8000A168A110D260A128A11831603136E087B
:1003B8000A168A110D260A128A113E300A168A1167
:1003C8000D260A128A11831603136F080A168A115A
:1003D8000D260A128A1141300A168A110D260A12B0
:1003E8008A11831603136B080A168A110D260A123E
:1003F8008A113E300A168A110D260A128A118316AE
:1004080003136C080A168A110D260A128A11413044
:100418000A168A110D260A128A11831603136D080B
:100428000A168A110D260A128A1145300A168A11EF
:100438000D260A128A11831603136E080A168A11EA
:100448000D260A128A1141300A168A110D260A123F
:100458008A11831603136F080A168A110D260A12C9
:100468008A1145300A168A110D260A128A11831636
:1004780003136B080A168A110D260A128A114130D5
:100488000A168A110D260A128A11831603136C089C
:100498000A168A110D260A128A1145300A168A117F
:1004A8000D260A128A11831603136D080A168A117B
:1004B8000D260A128A113C300A168A110D260A12D4
:1004C8008A11831603136E080A168A110D260A125A
:1004D8008A1130300A168A110D260A128A118316DB
:1004E80003136F080A168A110D260A128A11413061
:1004F8000A168A110D260A128A1110300A168A1154
:100508000D260A128A118C300A168A110D260A1233
:100518008A1104300A168A110D260A128A1103302C
:100528000A168A110D260A128A113C300A168A11F7
:100538000D260A128A110C300A168A110D260A1283
:100548008A1141300A168A110D260A128A110C30B6
:100558000A168A110D260A128A1145300A168A11BE
:100568000D260A128A1160300A168A110D260A12FF
:100578008A118C300A168A110D260A128A11053042
:100588000A168A110D260A128A110B300A168A11C8
:100598000D260A128A1146300A168A110D260A12E9
:1005A8008A110C300A168A110D260A128A11433054
:1005B8000A168A110D260A128A110C300A168A1197
:1005C8000D260A128A113E300A168A110D260A12C1
:1005D8008A1160300A168A110D260A128A114630CD
:1005E8000A168A110D260A128A110C300A168A1167
:1005F8000D260A128A1143300A168A110D260A128C
:100608008A110C300A168A110D260A128A113D30F9
:100618000A168A110D260A128A1160300A168A11E2
:100628000D260A128A1146300A168A110D260A1258
:100638008A110C300A168A110D260A128A114330C3
:100648000A168A110D260A128A110C300A168A1106
:100658000D260A128A113C300A168A110D260A1232
:100668008A1160300A168A110D260A128A1146303C
:100678000A168A110D260A128A110C300A168A11D6
:100688000D260A128A113C300A168A110D260A1202
:100698008A1114300A168A110D260A128A118C3012
:1006A8000A168A110D260A128A1106300A168A11AC
:1006B8000D260A128A110B300A168A110D260A1203
:1006C8008A1137300A168A110D260A128A11163035
:1006D8000A168A110D260A128A1137300A168A114B
:1006E8000D260A128A1116300A168A110D260A12C8
:1006F8008A1100300A168A110D260A128A11023050
:100708000A168A110D260A128A113A300A168A1117
:100718000D260A128A1112300A168A110D260A129B
:100728008A1130300A168A110D260A128A111830D9
:100738000A168A110D260A128A1100300A168A1121
:100748000D260A128A110A300A168A110D260A1273
:100758008A1137300A168A110D260A128A111630A4
:100768000A168A110D260A128A1137300A168A11BA
:100778000D260A128A1116300A168A110D260A1237
:100788008A1100300A168A110D260A128A110230BF
:100798000A168A110D260A128A1135300A168A118C
:1007A8000D260A128A1112300A168A110D260A120B
:1007B8008A1136300A168A110D260A128A11183043
:1007C8000A168A110D260A128A110A308312031397
:1007D80055020318861C352C8D300A168A110D26F1
:1007E8000A128A1106300A168A110D260A128A116F
:1007F8004D3083120313CC001930CB009A30CA0055
:10080800CA0B042CCB0B042CCC0B042C0B2C8D30DA
:100818000A168A110D260A128A1106300A168A113A
:100828000D260A128A114D3083120313CC00193099
:10083800CB009A30CA00CA0B1F2CCB0B1F2CCC0B39
:100848001F2C262C8D300A168A110D260A128A11A1
:1008580005300A168A110D260A128A11831203130B
:10086800D5010A3056020318061CE92BA5010230EF
:100878000A128A159C240A128A110A128A11F12571
:100888000A128A11701C552C003083120313A10020
:10089800A2000030A300A4000A128A15BD200A1283
:1008A8008A11333083120313CC00BC30CB001030D4
:1008B800CA00CA0B5D2CCB0B5D2CCC0B5D2C0A122D
:1008C8008A1106270A128A11711C932C0030831290
:1008D8000313A100A2000030A300A4000A128A1585
:1008E800BD200A128A11333083120313CC00BC30A6
:1008F800CB001030CA00CA0B7F2CCB0B7F2CCC0B43
:100908007F2C83120313A50101300A128A159C2437
:100918000A128A110A128A11F1250A128A118312FF
:100928000313A50103300A128A159C240A128A119E
:100938000A128A11F1250A128A11701CB02C003093
:1009480083120313A100A2000030A300A4000A121E
:100958008A15BD200A128A11333083120313CC0082
:10096800BC30CB001030CA00CA0BB82CCB0BB82C4B
:10097800CC0BB82C0A128A1106270A128A11711C8C
:10098800EE2C003083120313A100A2000030A30054
:10099800A4000A128A15BD200A128A113330831264
:1009A8000313CC00BC30CB001030CA00CA0BDA2CC1
:1009B800CB0BDA2CCC0BDA2C83120313A5010130F4
:1009C8000A128A159C240A128A110A128A11F12520
:1009D8000A128A11033083120313CA004A08A500B9
:1009E80004300A128A159C240A128A110A128A11E2
:1009F800F1250A128A11701C062D0A128A1106277F
:100A08000A128A11711C312D003083120313A100C0
:100A1800A2000030A300A4000A128A15BD200A1201
:100A28008A11333083120313CC00BC30CB00103052
:100A3800CA00CA0B1D2DCB0B1D2DCC0B1D2D8312EF
:100A48000313A50101300A128A159C240A128A117F
:100A58000A128A11F1250A128A110230831203132D
:100A6800CA004A08A50003300A128A159C240A12F3
:100A78008A110A128A11F1250A128A11701C512D45
:100A8800003083120313A100A2000030A300A400C9
:100A98000A128A15BD200A128A11333083120313F1
:100AA800CC00BC30CB001030CA00CA0B592DCB0B80
:100AB800592DCC0B592D0A128A1106270A128A11B0
:100AC800711C8F2D003083120313A100A200003087
:100AD800A300A4000A128A15BD200A128A11333015
:100AE80083120313CC00BC30CB001030CA00CA0BF1
:100AF8007B2DCB0B7B2DCC0B7B2D83120313A501F8
:100B080001300A128A159C240A128A110A128A11C3
:100B1800F1250A128A11033083120313CA004A0806
:100B2800A50000300A128A159C240A128A110A129A
:100B38008A11F1250A128A11701CAF2D0030831218
:100B48000313A100A2000030A300A4000A128A1512
:100B5800BD200A128A11333083120313CC00BC3033
:100B6800CB001030CA00CA0BB72DCB0BB72DCC0B5E
:100B7800B72D0A128A1106270A128A11711CED2D47
:100B8800003083120313A100A2000030A300A400C8
:100B98000A128A15BD200A128A11333083120313F0
:100BA800CC00BC30CB001030CA00CA0BD92DCB0BFF
:100BB800D92DCC0BD92D83120313A50101300A12AC
:100BC8008A159C240A128A110A128A11F1250A121E
:100BD8008A1183120313D601E92B83120313BC0174
:100BE800BC0A3C086802031C08003C08A03E8400BC
:100BF800831300086902031C282E362E00300A12BF
:100C08008A15E5210A128A11F22E01300A128A1574
:100C1800E5210A128A11F22E01300A128A15E521FD
:100C28000A128A11213083120313BB007630BA00EE
:100C3800BA0B1C2EBB0B1C2E000001300A128A15A1
:100C4800E5210A128A11F22E831203136708003A6B
:100C58000319022E023A0319092E013A0319102E1C
:100C6800352EF22E831203133C08A03E8400690837
:100C780083130002031C672E752E01300A128A1591
:100C8800E5210A128A11F22E00300A128A15E5218E
:100C98000A128A11F22E01300A128A15E5210A1267
:100CA8008A11213083120313BB007630BA00BA0BC5
:100CB8005B2EBB0B5B2E000001300A128A15E52162
:100CC8000A128A11F22E831203136708003A0319D5
:100CD800412E013A03194F2E033A0319482E742E58
:100CE800F22E831203133C08B03E840083130008DD
:100CF8006302031CA62EB42E00300A128A15E521C1
:100D08000A128A11F22E01300A128A15E5210A12F6
:100D18008A11F22E01300A128A15E5210A128A1167
:100D2800213083120313BB007630BA00BA0B9A2E17
:100D3800BB0B9A2E000001300A128A15E5210A120F
:100D48008A11F22E831203136708003A03198E2EB4
:100D5800013A0319802E023A0319872EB32EF22E78
:100D6800831203133C08B03E840063088313000217
:100D7800031CE52EF72E01300A128A15E5210A1206
:100D88008A11F22E00300A128A15E5210A128A11F8
:100D9800F22E01300A128A15E5210A128A11213031
:100DA80083120313BB007630BA00BA0BD92EBB0BE3
:100DB800D92E000001300A128A15E5210A128A117B
:100DC800F22E831203136708013A0319BF2E033A60
:100DD8000319CD2E013A0319C62EF22E0A128A15CE
:100DE8008A230A128A11701CFF2E143083120313EF
:100DF800BA003A08BC00013083120313BA003A085B
:100E0800BC07F52DF017732F053083120313C500A7
:100E18004508A00063080A168A1139260A128A11A1
:100E2800D63E831203136907C6004608840083135D
:100E38000008043E5D2F0530C5004508A000630882
:100E48000A168A1139260A128A11D63E831203130A
:100E58006907C6004608840083130008023E5D2F18
:100E68000530C5004508A00063080A168A1139260E
:100E78000A128A11D63E831203136907C600460870
:100E8800840083130008013E5D2F0530C500450826
:100E9800A00063080A168A1139260A128A11D63E5A
:100EA800831203136907C6004608840083130008E9
:100EB800083EC7000530C8004808A00063080A16A5
:100EC8008A1139260A128A11D63E8312031369073A
:100ED800C90049088400470883138000832F8312C0
:100EE80003136708003A0319082F013A03191F2F43
:100EF800033A0319342F013A0319492F832F00307D
:100F08000A128A15E5210A128A1100300A128A1576
:100F1800E5210A128A1183120313D101D201FA3092
:100F2800A1000030A200FA30A3000030A4000A1289
:100F38008A15BD200A128A11831203135208803AB7
:100F4800FF0081307F02031DAB2FF43051020318DC
:100F5800C42F023083120313C5004508A2001330C2
:100F68000A168A1184270A128A1183120313510858
:100F78002207D10052080318520A2307D200A02FD3
:100F8800003083120313A100A2000030A300A400C4
:100F98000A128A15BD200A128A1170101A3083129B
:100FA8000313C7005E30C6008630C500C50BDA2FB4
:100FB800C60BDA2FC70BDA2F00008312031364085D
:100FC800C5004508A50060080A128A159C240A1263
:100FD8008A110F308312031368060319F62F0A12B9
:100FE8008A11F125F013080064008001840A0406C0
:100FF800031900340406F92F83120313A200A10178
:101008008C11220893008C1D07281308A0002008C3
:10101800A1008C1108000230831603139F0083126D
:10102800031388018901831603138801890101309C
:101038000A168A115F260A128A1538300A168A118A
:101048005F260A128A150C300A168A115F260A12C0
:101058008A1506300A168A115F260A128A15023086
:101068000A168A115F260800003400340034003460
:1010780000340034003400340134013401340134C4
:1010880001340134013401340034003400340034B4
:1010980001340134013401340034003400340034A4
:1010A8000134013401340134003400340134013492
:1010B8000034003401340134003400340134013484
:1010C8000034003401340134003401340034013474
:1010D8000034013400340134003401340034013464
:1010E8000034013400340134831203139E01831643
:1010F80003139E01831203131F151F1981281E084D
:10110800A000A1010310A00DA10D0310A00DA10DB9
:101118002008CF002108D000AF2883124F08013ED5
:10112800CF0050080318013E003ED000080083128B
:101138004F08023ECF0050080318013E003ED00081
:10114800080083124F08033ECF0050080318013EE1
:10115800003ED0000800831603131E08403A031906
:101168009128C03A03199B28403A0319A528BC289E
:10117800080083120313D701D3012208803AFF0025
:1011880081307F02031DCA2800302102031CED288C
:10119800831203132208A7002108A600D7010130F3
:1011A8002702003003192602031CED282608003EFA
:1011B800A60027080318013EFF3EA7000130A5003E
:1011C8002508D70701302702003003192602031823
:1011D800DA28831203132108A5002508D80024085B
:1011E800803AFF0081307F02031DFC280030230273
:1011F800031C1F29831203132408A9002308A8002D
:10120800D30101302902003003192802031C1F29C9
:101218002808003EA80029080318013EFF3EA9003F
:101228000130A5002508D307013029020030031931
:10123800280203180C29831203132308A500250884
:10124800D40091300A168A110D260A128A158312C3
:10125800031357080A168A110D260A128A158312D3
:10126800031358080A168A110D260A128A158312C2
:10127800031353080A168A110D260A128A158312B7
:10128800031354080A168A110D2608008312031343
:101298002408AE002308AD00A501A601A701A801F6
:1012A800A901AA01AB01AC0127302E0210300319A5
:1012B8002D02031C7C292D08F03EAD002E080318D2
:1012C800013ED83EAE000130AB070318AC0A00302F
:1012D800AC0758292D08183EAD002E080318013E0A
:1012E800FC3EAE000130A9070318AA0A0030AA077D
:1012F80003302E02E83003192D02031C92296E29AF
:101308002D089C3EAD002E080318013EFF3EAE009E
:101318000130A7070318A80A0030A80700302E02DA
:10132800643003192D02031CA82984292D08F63ED0
:10133800AD002E080318013EFF3EAE000130A507A0
:101348000318A60A0030A60700302E020A30031937
:101358002D0203189A292B082C040319BA292B08E3
:10136800303E0A168A114C260A128A158312031374
:1013780029082A040319C7292908303E0A168A11A0
:101388004C260A128A158312031327082804031906
:10139800D4292708303E0A168A114C260A128A15C3
:1013A800831203132508303E0A168A114C260A12A6
:1013B8008A15831203132D08303E0A168A114C260B
:1013C800080083120313AD00F701F8012D03031D74
:1013D800262A6708031DF5290330AA002A08E70012
:1013E800F7290130E7029630AA002A08A100A201D5
:1013F800A301A30A00300A168A1134270A128A1593
:101408007808803AFF0080307F02031D0D2A56308D
:1014180077020318262A023083120313AA002A0827
:10142800A20014300A168A1184270A128A1577082E
:10143800831203132207F70078080318780A230792
:10144800F800042A831203132D08031D692A0330A8
:101458006706031D312AE701352A0130AA002A0848
:10146800E7079630AA002A08A100FF30AB002B0836
:10147800A200FF30AC002C08A30000300A168A1125
:1014880034270A128A157808803AFF007F307F02D5
:10149800031D502AAB307702031C692A02308312DD
:1014A8000313AA002A08A20014300A168A118427F6
:1014B8000A128A157708831203132207F70078089F
:1014C8000318780A2307F800472A00308312031309
:1014D800A100A2000030A300A4000A128A15BD20B2
:1014E8000A128A15033083120313AC008A30AB004A
:1014F8005630AA00AA0B7E2AAB0B7E2AAC0B7E2A9A
:10150800852A0800C83083120313B3000030B400E2
:1015180070160A168A1187260A128A15831203136F
:101528003308A63EAF0034080318013EFF3EB00062
:1015380030085002031DA22A2F084F020318AF2AB1
:101548006B0883160313C100831203136A088316FA
:101558000313C000022B831250083402031DB62A5D
:101568004F08330203180F2B3309AF003409B000BA
:10157800AF0A0319B00A4F082F07CD005008031807
:10158800500A3007CE004E08A1004D08A0000030D8
:10159800A200A3000A168A11EB260A128A158312E2
:1015A80003132008AF002108B0004D080A3EA00030
:1015B8004E080318013E003EA1006B08A3006A080C
:1015C800A2000A168A11C2270A128A158312031367
:1015D80020082F07B10021080318210A3007B2009C
:1015E8006A08310783160313C000831203136B08BC
:1015F80003186B0A320783160313C10083120313FF
:101608006D0883160313C300831203136C08831633
:101618000313C2006E2B831234085002031D162BCD
:1016280033084F0203186E2B4F09AF005009B00062
:10163800AF0A0319B00A33082F07CD00340803187E
:10164800340A3007CE004E08A1004D08A000003033
:10165800A200A3000A168A11EB260A128A15831221
:1016680003132008AF002108B0004D080A3EA0006F
:101678004E080318013E003EA1006D08A3006C0847
:10168800A2000A168A11C2270A128A1583120313A6
:1016980020082F07B10021080318210A3007B200DB
:1016A8006C08310783160313C200831203136D08F5
:1016B80003186D0A320783160313C300831203133A
:1016C8006B0883160313C100831203136A08831679
:1016D8000313C00083160313430883120313A200E5
:1016E80083160313420883120313A10083160313FE
:1016F800410883120313A4008316031340088312BE
:101708000313A3000A128A15BD20080083120313CD
:10171800D101D20106158615831203135208803AA7
:10172800FF0083307F02031D9B2BE8305102031812
:10173800612C0A128A1586220A128A15023083122F
:101748000313B5003508A20013300A168A1184273E
:101758000A128A158312031351082207D10052086E
:101768000318520A2307D200A201A20A11300A164E
:101778008A1184270A128A15831203132208B500D6
:101788003508B900A201A20A0D300A168A11842769
:101798000A128A158312031322032304031D002C43
:1017A800F63039060319DC2BFA303906031DE62B0F
:1017B8007015E62B7015002C7014E930D100033039
:1017C800D200002C3908F03A0319002C023A031908
:1017D800002C063A0319002C023A0319DE2B0E3AA4
:1017E8000319002C023A0319DE2B063A0319002CC0
:1017F800023A0319002CE02B701D902B273083161A
:1018080003134D02103003194C02031C442C023000
:10181800831203135F060319442C0130B500350801
:10182800DF07392C83160313CC01CD018D300A163E
:101838008A110D260A128A1505300A168A110D26F4
:101848000A128A15432C83160313CC01CD018D305F
:101858000A168A110D260A128A1503300A168A11E9
:101868000D260A128A157114432C831203135F087C
:10187800013A0319162C033A0319272C432C70112B
:10188800003083120313A100A2000030A300A400BB
:101898000A128A15BD200A128A15403083120313D2
:1018A800B7006A30B600D530B500B50B592CB60B69
:1018B800592CB70B592C602C902B701C762C932C20
:1018C800013083120313E302862C0130B50035087A
:1018D800E907862C0130B5003508E307862C01306E
:1018E800E902862C831203136708003A0319642C53
:1018F800013A0319692C033A03196E2C013A0319AA
:10190800732C862C0330B7008A30B6005630B500E9
:10191800B50B8C2CB60B8C2CB70B8C2C932C711C08
:101928000800143083120313B5003508B800080006
:1019380083120313C1002D3084009030A6000408E0
:10194800A7001430A8002608840083170008A900FF
:10195800A60A27088400831329088000A70AA80B71
:10196800A72CF01FF92CDE0104305E020318F92CB5
:10197800D901053059020318F12C0530A6002608B4
:10198800A0005E080A168A1139260A128A15D63E60
:10199800831203135907A70027088400831300083C
:1019A800A8000530A9002908A0005E080A168A11B7
:1019B80039260A128A152D3E831203135907AA00E5
:1019C8002A0884002808831380000130A60026080E
:1019D800D90705305902031CC12C0130A60026087E
:1019E800DE0704305E02031CBC2C0F30A60026085C
:1019F800E800DE0102305E020318292DD9011030FB
:101A080059020318212D5E08A60004300310A60D04
:101A1800FF3E031D0A2DA0302607A70059082707F7
:101A2800A80028088400831380010130A600260836
:101A3800D90710305902031C072D0130A6002608CB
:101A4800DE0702305E02031C022D4108A6002608AC
:101A5800E0002508A6002608E4006908A600260874
:101A6800E2006308A6002608E6006708A600260824
:101A7800DC00DD0180300A168A11FA250A128A155F
:101A880001300A168A11CB260A128A15831203130B
:101A9800C301C4014408803AFF0087307F02031D58
:101AA800572DD130430203180800F0128312031394
:101AB8006208A6005D08B83E8400260883178000E7
:101AC8006608A6005D08C83E840026088000053028
:101AD800A6002608A00066080A168A1139260A12E6
:101AE8008A152D3E831203136207A7002708840076
:101AF80083130008103E8400F01183170018F015B6
:101B0800053083120313A6002608A00066080A16EB
:101B18008A1139260A128A152D3E83120313620789
:101B2800A7002708840083130008203E8400F110D2
:101B380083170018F114053083120313A600260832
:101B4800A00066080A168A1139260A128A152D3E3F
:101B5800831203136207A700270884008313000871
:101B6800303E8400701383170018701705308312F5
:101B78000313A6002608A00066080A168A1139264B
:101B88000A128A152D3E831203136207A70027083D
:101B9800840083130008403E8400F0108317001867
:101BA800F014831203135D08031DE32DF12DF014C7
:101BB800F12DF015F12DF114F12D7017F12D5C08B0
:101BC800003A0319DB2D013A0319DD2D033A0319F5
:101BD800DF2D013A0319E12DF12D0030F019013004
:101BE800F118013EF018013E701B013EA6002608C0
:101BF800C2000330420203181C2E6208A600260801
:101C0800E1006608A6002608E500F0190D2E03304D
:101C1800192EF118112EDA011C2E701B162EDA015E
:101C2800DA0A1C2EF0181C2E0230A6002608DA004C
:101C380062084106031D1A2F66082506031D1A2F80
:101C480068085D020318D22E5D08A6002608E80081
:101C5800DE0102305E020318D22ED901103059027B
:101C68000318642E5E08A60004300310A60DFF3E7C
:101C7800031D392EB8302607A70059082707A800E2
:101C88002808840083170008A9005E08AA00043009
:101C98000310AA0DFF3E031D4C2EA0302A07AB00EF
:101CA80059082B07AC002C088400290883138000EE
:101CB8000130A6002608D90710305902031C362E19
:101CC8000130A6002608DE072D2E0530A6002608BE
:101CD800A00065080A168A1139260A128A152D3EAF
:101CE800831203136107A7002708840083130008E1
:101CF800043EBC2E0530A6002608A00065080A167A
:101D08008A1139260A128A152D3E83120313610798
:101D1800A7002708840083130008023EBC2E053064
:101D2800A6002608A00065080A168A1139260A1294
:101D38008A152D3E831203136107A7002708840024
:101D480083130008013EBC2E0530A6002608A0001B
:101D580065080A168A1139260A128A152D3E831239
:101D680003136107A7002708840083130008083EAF
:101D7800A8000530A9002908A00065080A168A11DC
:101D880039260A128A152D3E831203136107AA0009
:101D98002A088400280883138000E02E5A08003A95
:101DA8000319692E013A03197E2E033A0319932E5B
:101DB800013A0319A82EE02E6908A6002608E200B9
:101DC8006308A6002608E6006708A6002608DC00C7
:101DD800DD01F016DE0102305E0203181A2FD90168
:101DE800103059020318122F5E08A60004300310A1
:101DF800A60DFF3E031DFB2EB8302607A700590885
:101E08002707A80028088400831780010130A6004E
:101E18002608D90710305902031CF82E0130A600F5
:101E28002608DE0702305E02031CF32E0430420649
:101E380003198C2F0F305D0203188C2FD42F053017
:101E4800A6002608A00065080A168A1139260A1273
:101E58008A152D3E831203136107A7002708840003
:101E680083130008043E762F0530A6002608A0003C
:101E780065080A168A1139260A128A152D3E831218
:101E880003136107A7002708840083130008023E94
:101E9800762F0530A6002608A00065080A168A11C4
:101EA80039260A128A152D3E831203136107A700EB
:101EB8002708840083130008013E762F0530A6000A
:101EC8002608A00065080A168A1139260A128A15FA
:101ED8002D3E831203136107A7002708840083138C
:101EE8000008083EA8000530A9002908A0006508D8
:101EF8000A168A1139260A128A152D3E83120313EF
:101F08006107AA002A0884002808831380009A2FF2
:101F18005A08003A0319232F013A0319382F033AB4
:101F280003194D2F013A0319622F9A2F6908A60049
:101F38002608E2006308A6002608E6006708A6004F
:101F48002608DC00DD01F016DE0102305E0203180F
:101F5800D42FD901103059020318CC2F5E08A600DF
:101F680004300310A60DFF3E031DB52FB830260719
:101F7800A70059082707A8002808840083178001AC
:101F88000130A6002608D90710305902031CB22FC9
:101F98000130A6002608DE0702305E02031CAD2FC2
:101FA800F01AF92FF019DC2F0130E2020330F22F7A
:101FB800F118E22F0130E602DC01F52F701BEB2F40
:101FC8000130A6002608E207DC01DC0AF52FF0182C
:101FD800F92F0130A6002608E6070230A6002608D9
:101FE800DC000130A6002608DD070130C30703180E
:101FF800C40A0030C4074E2D10308A000408840A31
:102008008207003457346F3472346B3469346E3459
:0A20180067342E342E342E340034C9
:102BE600033414340134FA340034FA3400348312D2
:102BF6000313A300A31723080A168A115F260800E9
:102C0600831203138C1E032E1A08A0002008A100AD
:102C16002108080083120313A00083160313981CCF
:102C2600102E8312031320089900080024308316FF
:102C360003139800983083120313980014308316F8
:102C4600031399000B178B1708007E088A007F086C
:102C5600820028260A168A118000840A04087D0646
:102C660003190034FF0A0319FE0A2C2E83120313DC
:102C7600A300A201231C432E2008A1002108A207BD
:102C86000310A00D0310A30C2308031D3D2E2208DC
:102C9600080083120313A2000911891009142208DF
:102CA6008800091509110730A1007D30A000A00B8E
:102CB6005A2EA10B5A2E080083120313A2000911E3
:102CC6008910091022088800091509110D30A10084
:102CD600FB30A000A00B6D2EA10B6D2E722E0800EE
:102CE6000C3407340E340D340634093405340034FC
:102CF600053402340C3406340A340E340A340B34E8
:102D060009340134013403340A128A1578200A166C
:102D16008A1180300A168A11FA250A168A11831238
:102D260003135008A4004F08A3000A128A154A216B
:102D36000800831203138501FF30831603138500F1
:102D46008930831203139F000230831603139F00FA
:102D5600533083120313A000A00BAF2E08000330DC
:102D66008316031386004030940020308312031329
:102D760094008030831603138700033083120313F5
:102D8600870004308316031381008B168B17080007
:102D960083120313A400240884000A168A11002053
:102DA6000A168A11003A03190800240884000A1634
:102DB6008A1100200A168A110A168A114C260A164A
:102DC6008A11013083120313A3002308A407CE2E11
:102DD60083120313A401A501201CF72E2208A407C1
:102DE6000318A50A2308A50701300310A20DA30D99
:102DF600FF3E031DF82E01300310A10CA00CFF3E70
:102E0600031DFF2E20082104031DEF2E2508A10017
:102E16002408A00008000B1D292F0B116430810027
:102E2600013083160313CC070318CD0A0030CD07F3
:102E3600831203130618232F0130F2007208D607F7
:102E46008618292F0130F2007208D5077608FF0090
:102E560075088A0074088400730E8300FE0E7E0EC9
:102E6600090083120313A40089300A168A110D265D
:102E76000A168A118312031324080A168A110D26CC
:102E86000A168A118312031321080A168A110D26BF
:102E96000A168A118312031322080A168A110D26AE
:102EA6000A168A118312031323080A168A110D269D
:102EB60008000C3407340E340D3406340934053456
:102EC6000034053402340C3406340A340E340A3421
:102ED6000B3409340134013403340C3407340E3412
:102EE6000D340634093405340034053402340C3408
:102EF60006340A340E340A340B34093401340134EE
:102F0600033483120313A6008E300A168A110D2687
:102F16000A168A118312031326080A168A110D2629
:102F26000A168A110230831203132206031DA62FE6
:102F36000A168A1103260A168A1183120313A4009D
:102F46002408F900A72FF9010A168A11032683120D
:102F56000313A4002408DB007908A400A5012408B3
:102F6600A500A4015B082407A70000300318013060
:102F76002507A8002808A3002708A2000800831236
:102F86000313A601A701200821040319FB2FA5019D
:102F9600A50AA11BDA2F01300310A00DA10DFF3EDB
:102FA600031DCF2F0130A4002408A507CC2F013024
:102FB6000310A60DA70DFF3E031DDB2F21082302DC
:102FC600031DE72F20082202031CF02F2008A2026F
:102FD6002108031CA303A302261401300310A10C2D
:102FE600A00CFF3E031DF12F0130A502031DDA2FB1
:0A2FF6002708A1002608A00008002B
:02400E003A3F37
:00000001FF
